:100000000C949E000C94BD000C94BD000C94BD009B
:100010000C94BD000C94BD000C94BD000C94BD006C
:100020000C94BD000C94BD000C94BD000C94BD005C
:100030000C94BD000C94BE020C94BD000C94BD0049
:100040000C94BD000C94BD000C94BD000C94BD003C
:100050000C94BD000C94BD000C94BD000C94BD002C
:100060000C94BD000C94BD000C94BD000C94BD001C
:100070000C94BD000C94BD000C94BD000C94BD000C
:100080000C94BD000C94BD000C94BD004504BA0452
:10009000BA04BA04BA04BA04BA04BA04BA04BA0470
:1000A000BA04BA04BA04BA04BA04BA04BA04BA0460
:1000B000BA04BA04BA04BA04BA04BA04BA04BA0450
:1000C000BA04BA04BA04BA04BA04BA04BA04BA0440
:1000D000BA04B304BA04BA04BA04BA04BA04BA0437
:1000E000AC04BA04BA04BA04BA04BA044C04510405
:1000F00058045F0466046D0474047B04820489045C
:10010000BA04BA04BA04BA04BA04BA04BA04900429
:1001100097049E04A504EC0405051E05370550054B
:10012000690582059B05B405CD05E605FF051806A2
:1001300031064A0663067C069506AE0611241FBEEC
:10014000CFEFD0E4DEBFCDBF11E0A0E0B1E0ECE442
:10015000FAE100E00BBF02C007900D92AA3BB10785
:10016000D9F722E0AAEBB1E001C01D92AD32B2078F
:10017000E1F70E9426090C94240D0C940000CF9303
:10018000DF9300D01F92CDB7DEB789837B836A836C
:1001900089818A3031F48A819B81BC018DE00E9483
:1001A000BF0080EC90E0FC018081882F90E080729D
:1001B0009927892BB1F386EC90E02981FC012083FB
:1001C00080E090E00F900F900F90DF91CF91089515
:1001D000CF93DF9300D01F92CDB7DEB789836A83B8
:1001E0004B838B81882371F08A81282F30E081E056
:1001F00090E002C0880F991F2A95E2F7982F898115
:10020000892B0EC08A81282F30E081E090E002C067
:10021000880F991F2A95E2F7982F90958981892355
:100220000F900F900F90DF91CF910895CF93DF93B0
:1002300000D0CDB7DEB789836A838A81282F30E06A
:1002400081E090E002C0880F991F2A95E2F7982F6D
:10025000898189230F900F90DF91CF9108950F939B
:100260001F93CF93DF93CDB7DEB702E210E040E0FB
:1002700064E08FEF0E94E800F8018083000080E2D4
:1002800090E0FC018081809560E00E941601882347
:1002900011F081E3D3C080E290E0FC018081809581
:1002A00061E00E941601882311F084E3C7C080E258
:1002B00090E0FC018081809562E00E941601882315
:1002C00011F087E3BBC080E290E0FC018081809563
:1002D00063E00E941601882311F08AE2AFC002E2B7
:1002E00010E040E065E08FEF0E94E800F8018083B5
:1002F000000080E290E0FC018081809560E00E9437
:100300001601882311F082E399C080E290E0FC019D
:100310008081809561E00E941601882311F085E3B9
:100320008DC080E290E0FC018081809562E00E94B7
:100330001601882311F088E381C080E290E0FC017F
:100340008081809563E00E941601882311F080E38C
:1003500075C002E210E040E066E08FEF0E94E80026
:10036000F8018083000080E290E0FC0180818095AC
:1003700060E00E941601882311F083E35FC080E2F1
:1003800090E0FC018081809561E00E941601882345
:1003900011F086E353C080E290E0FC0180818095FB
:1003A00062E00E941601882311F089E347C080E2D1
:1003B00090E0FC018081809563E00E941601882313
:1003C00011F083E23BC002E210E040E067E08FEF13
:1003D0000E94E800F8018083000080E290E0FC01C8
:1003E0008081809560E00E941601882311F081E4ED
:1003F00025C080E290E0FC018081809561E00E9450
:100400001601882311F082E419C080E290E0FC011B
:100410008081809562E00E941601882311F083E4B8
:100420000DC080E290E0FC018081809563E00E9435
:100430001601882311F084E401C080E0DF91CF91A0
:100440001F910F910895CF93DF93CDB7DEB72C970F
:100450000FB6F894DEBF0FBECDBF6D837E838F8352
:10046000988729873A874B875C878D819E81AF81EA
:10047000B88529853A854B855C85BC01CD010E94F4
:10048000650BDC01CB0189839A83AB83BC838981B3
:100490009A81AB81BC81892B8A2B8B2B29F489858E
:1004A0009A85AB85BC8511C089859A85AB85BC854D
:1004B0008D839E83AF83B88789819A81AB81BC810C
:1004C00089879A87AB87BC87D0CFBC01CD012C969A
:1004D0000FB6F894DEBF0FBECDBFDF91CF91089568
:1004E000CF93DF93CDB7DEB781E890E02BE0FC013E
:1004F000208388E890E02DE730E0FC013183208301
:100500008FE690E022E0FC01208384E890E0FC018B
:100510001182108280910E0190910F01A091100123
:10052000B09111018093BB019093BC01A093BD01D8
:10053000B093BE018FE590E02FE530E0F901208116
:100540002068FC0120830000DF91CF910895CF93B4
:10055000DF93CDB7DEB781E890E0FC0110820000A8
:10056000DF91CF910895CF93DF93CDB7DEB781E0D0
:100570008093BA010000DF91CF9108951F920F92EE
:1005800000905F000F92112400905B000F922F9358
:100590003F934F935F936F937F938F939F93AF930B
:1005A000BF93EF93FF93CF93DF93CDB7DEB78091E7
:1005B000BB019091BC01A091BD01B091BE0101971A
:1005C000A109B1098093BB019093BC01A093BD0127
:1005D000B093BE018091BB019091BC01A091BD017F
:1005E000B091BE01892B8A2B8B2B91F40E94B30210
:1005F00080910E0190910F01A0911001B091110115
:100600008093BB019093BC01A093BD01B093BE0148
:100610000000DF91CF91FF91EF91BF91AF919F913A
:100620008F917F916F915F914F913F912F910F909B
:1006300000925B000F9000925F000F901F90189542
:10064000CF93DF9300D000D0CDB7DEB769837A8334
:100650008B839C8389819A81AB81BC8180930E01BD
:1006600090930F01A0931001B093110180910E019E
:1006700090910F01A0911001B09111018093BB01E5
:100680009093BC01A093BD01B093BE0100000F90F8
:100690000F900F900F90DF91CF9108950F931F93BC
:1006A000CF93DF9300D000D0CDB7DEB769837A83D4
:1006B0008B839C838091D8019091D901A091DA011C
:1006C000B091DB019C01AD0169817A818B819C81B4
:1006D0000E94900B882309F477C020E030E0A90144
:1006E00069817A818B819C810E94900B882351F4CF
:1006F00081E990E021E930E0F90120812870FC01D6
:10070000208309C081E990E021E930E0F9012081EE
:100710002360FC01208328E539E344E75FE3698136
:100720007A818B819C810E94900B882344F488E914
:1007300090E02FEF3FEFFC013183208334C020E0B5
:1007400034E244EF56E469817A818B819C810E9476
:10075000B20C181634F488E990E0FC011182108282
:1007600022C008E910E020E030E040E053E4698175
:100770007A818B819C810E94B70CDC01CB019C01AA
:10078000AD0160E074E284EF9AE40E94950BDC0115
:10079000CB01BC01CD010E94070CDC01CB0101970C
:1007A000F8019183808384E990E0FC01118210823A
:1007B00089819A81AB81BC818093D8019093D901C2
:1007C000A093DA01B093DB0100000F900F900F901F
:1007D0000F90DF91CF911F910F910895CF93DF93E9
:1007E000CDB7DEB780E990E020E4FC01208381E909
:1007F00090E02BE0FC01208360E070E0CB010E94E0
:100800004E030000DF91CF910895CF93DF93CDB7D2
:10081000DEB780E990E0FC01108281E990E0FC0104
:1008200010820000DF91CF910895CF93DF9300D025
:100830001F92CDB7DEB79B838A838A819B81892BE8
:1008400019F41B821A8203C01B821A8200008A815B
:100850009B81892B09F096C00E942F018983898191
:10086000882F90E0092E000CAA0BBB0B40E050E053
:1008700024E430E0841B950B2817390708F47AC06C
:100880008A5B9F4FFC010C94870B80E190E0909372
:1008900013018093120175C010921301109212017E
:1008A00070C081E090E0909313018093120169C0C1
:1008B00082E090E0909313018093120162C083E084
:1008C00090E090931301809312015BC084E090E06C
:1008D000909313018093120154C085E090E09093AF
:1008E0001301809312014DC086E090E090931301B4
:1008F0008093120146C087E090E0909313018093AB
:1009000012013FC088E090E09093130180931201A0
:1009100038C089E090E0909313018093120131C0B8
:100920008AE090E090931301809312012AC08BE03B
:1009300090E0909313018093120123C08CE090E02B
:1009400090931301809312011CC08DE090E090936E
:1009500013018093120115C08EE090E09093130173
:10096000809312010EC08FE090E09093130180936A
:10097000120107C080E190E090931301809312016F
:10098000000000008A819B810F900F900F90DF91F3
:10099000CF910895CF93DF93CDB7DEB7AA970FB667
:1009A000F894DEBF0FBECDBF9AA789A78091120130
:1009B00090911301CC01A0E0B0E040E050E022E1D2
:1009C00030E0841B950B2817390708F4E0C18557E0
:1009D0009F4FFC010C94870B1A82198211C08981E8
:1009E0009A818C5E9E4FFC01208189819A8180537F
:1009F0009E4FFC01208389819A8101969A83898385
:100A000089819A81089758F3DBC11C821B8211C02F
:100A10008B819C81845E9E4FFC0120818B819C8117
:100A200080539E4FFC0120838B819C8101969C8387
:100A30008B838B819C81089758F3C2C11E821D82D3
:100A400011C08D819E818C5D9E4FFC0120818D8126
:100A50009E8180539E4FFC0120838D819E81019653
:100A60009E838D838D819E81089758F3A9C1188636
:100A70001F8211C08F819885845D9E4FFC0120816B
:100A80008F81988580539E4FFC0120838F819885AC
:100A9000019698878F838F819885089758F390C126
:100AA0001A86198611C089859A858C5C9E4FFC0137
:100AB000208189859A8580539E4FFC0120838985FA
:100AC0009A8501969A87898789859A85089758F328
:100AD00077C11C861B8611C08B859C85845C9E4FCC
:100AE000FC0120818B859C8580539E4FFC012083D7
:100AF0008B859C8501969C878B878B859C85089729
:100B000058F35EC11E861D8611C08D859E858C5B47
:100B10009E4FFC0120818D859E8580539E4FFC0158
:100B200020838D859E8501969E878D878D859E85E8
:100B3000089758F345C1188A1F8611C08F85988978
:100B4000845B9E4FFC0120818F85988980539E4F46
:100B5000FC0120838F8598890196988B8F878F85DC
:100B60009889089758F32CC11A8A198A11C0898963
:100B70009A898C5A9E4FFC01208189899A898053D9
:100B80009E4FFC01208389899A8901969A8B898BD3
:100B900089899A89089758F313C11C8A1B8A11C046
:100BA0008B899C89845A9E4FFC0120818B899C896A
:100BB00080539E4FFC0120838B899C8901969C8BDE
:100BC0008B8B8B899C89089758F3FAC01E8A1D8AE3
:100BD00011C08D899E898C599E4FFC0120818D8981
:100BE0009E8980539E4FFC0120838D899E890196AA
:100BF0009E8B8D8B8D899E89089758F3E1C0188E46
:100C00001F8A11C08F89988D84599E4FFC012081C5
:100C10008F89988D80539E4FFC0120838F89988DFA
:100C20000196988F8F8B8F89988D089758F3C8C03D
:100C30001A8E198E11C0898D9A8D8C589E4FFC0189
:100C40002081898D9A8D80539E4FFC012083898D50
:100C50009A8D01969A8F898F898D9A8D089758F36E
:100C6000AFC01C8E1B8E11C08B8D9C8D84589E4FE7
:100C7000FC0120818B8D9C8D80539E4FFC01208335
:100C80008B8D9C8D01969C8F8B8F8B8D9C8D089767
:100C900058F396C01E8E1D8E11C08D8D9E8D8C5763
:100CA0009E4FFC0120818D8D9E8D80539E4FFC01B7
:100CB00020838D8D9E8D01969E8F8D8F8D8D9E8D27
:100CC000089758F37DC018A21F8E11C08F8D98A170
:100CD00084579E4FFC0120818F8D98A180539E4F99
:100CE000FC0120838F8D98A1019698A38F8F8F8D03
:100CF00098A1089758F364C01AA219A211C089A13B
:100D00009AA181549E4FFC01208189A19AA1805310
:100D10009E4FFC01208389A19AA101969AA389A3E1
:100D200089A19AA1089758F34BC01CA21BA211C01D
:100D30008BA19CA18C569E4FFC0120818BA19CA174
:100D400080539E4FFC0120838BA19CA101969CA304
:100D50008BA38BA19CA1089758F332C01EA21DA2A1
:100D600011C08DA19EA184569E4FFC0120818DA1B2
:100D70009EA180539E4FFC0120838DA19EA10196D0
:100D80009EA38DA38DA19EA1089758F319C018A604
:100D90001FA211C08FA198A581549E4FFC012081F4
:100DA0008FA198A580539E4FFC0120838FA198A509
:100DB000019698A78FA38FA198A5089758F30000D4
:100DC00089A59AA5892B19F01AA619A601C00000B9
:100DD00089A59AA5892B09F02BC08091DC01883068
:100DE00031F41092DC0181E08093A40120C0809155
:100DF000DC0191E0980F9093DC01882F90E0805304
:100E00009E4FFC0180818093DD0188E290E020917B
:100E1000DD012095FC0120838BE290E02091A4016C
:100E2000FC0120838091A401880F8093A40100001D
:100E300089A59AA5AA960FB6F894DEBF0FBECDBFBE
:100E4000DF91CF910895CF93DF9300D0CDB7DEB778
:100E50009A83898389819A8181309105A9F08230B2
:100E60009105B9F0892B29F58091C7019091C801AE
:100E7000892B29F081E090E09A8389831CC082E06D
:100E800090E09A83898317C082E090E09A838983F7
:100E900012C08091C7019091C801892B29F081E08F
:100EA00090E09A83898307C082E090E09A838983E7
:100EB00002C01A82198289819A818130910549F094
:100EC0008230910551F0892B09F00AC01092CD01B2
:100ED00007C080E28093CD0103C01092CD010000D5
:100EE00085E290E025E230E0F90120812F7D30910C
:100EF000CD01232B3091CF01232BFC01208389814D
:100F00009A810F900F90DF91CF910895CF93DF9347
:100F100000D0CDB7DEB79A83898389819A81892BE6
:100F200019F41A82198202C01A82198289819A815F
:100F3000892B09F037C08091C9019091CA01823094
:100F40009105C1F0833091052CF4009761F0019771
:100F500069F020C084309105A9F08430910574F0C7
:100F60000597A1F017C01092CE011BC081E08093BD
:100F7000CE0117C083E08093CE0113C087E0809339
:100F8000CE010FC08FE08093CE010BC08FE1809324
:100F9000CE0107C01092CE011092CA011092C90171
:100FA0000000000085E290E025E230E0F9012081B8
:100FB000207E3091CE01232B3091CF01232BFC01D9
:100FC000208389819A810F900F90DF91CF910895AE
:100FD000CF93DF9300D01F92CDB7DEB79B838A8378
:100FE00083E290E0FC0180818095807889838A810A
:100FF0009B81009719F00197A9F01FC08981882370
:1010000071F081E090E09B838A838091C901909187
:10101000CA0101969093CA018093C90113C01B8233
:101020001A8210C08981882329F081E090E09B8397
:101030008A8308C01B821A8205C081E090E09B83EE
:101040008A8300008A819B81009719F0019719F02B
:1010500003C0000001C000008A819B810F900F90A7
:101060000F90DF91CF910895CF93DF93CDB7DEB787
:1010700029970FB6F894DEBF0FBECDBF998788873A
:1010800085E0E7EAF1E0DE01139601900D928A9582
:10109000E1F786E090E09A838983888599850097B7
:1010A00019F0019779F01CC08091CB019091CC018F
:1010B000892B19F01986188618C081E090E099876D
:1010C000888713C08091CB019091CC01892B19F0B6
:1010D000198618860AC081E090E09987888705C044
:1010E00081E090E09987888700008885998500973E
:1010F00019F00197B1F136C08091DE019091DF01C6
:101100009C012F5F3F4F3093DF012093DE019E0152
:101110002D5F3F4F820F931FFC0180818093CF0191
:101120008091DE019091DF019C0189819A812817CD
:10113000390720F01092DF011092DE0185E290E085
:1011400025E230E0F9012081207C3091CD01232B74
:101150003091CE01232B3091CF01232BFC01208332
:1011600001C000008885998529960FB6F894DEBFE6
:101170000FBECDBFDF91CF910895CF93DF9300D005
:101180001F92CDB7DEB79B838A8383E290E0FC0198
:1011900080818095807889838A819B81009719F06E
:1011A000019791F022C08981882359F08091A5018F
:1011B0009091A601892B29F081E090E09B838A839E
:1011C00017C01B821A8214C08981882359F080912C
:1011D000A5019091A601892B29F081E090E09B83E5
:1011E0008A8306C01B821A8203C01B821A820000F7
:1011F0008A819B81009719F0019781F01FC0898136
:10120000882331F486E090E09093A6018093A501B5
:1012100060E070E0CB010E944E0310C064EA70ED04
:1012200082E893E40E944E038091A5019091A6016B
:1012300001969093A6018093A50100008A819B816D
:101240000F900F900F90DF91CF9108950F931F9300
:10125000CF93DF93CDB7DEB767970FB6F894DEBFB5
:101260000FBECDBF81E290E020EFFC01208382E23F
:1012700090E02FE0FC01208384E290E02FE7FC0166
:10128000208385E290E020E8FC01208387E290E063
:101290002FEFFC01208388E290E0FC0110828AE2BB
:1012A00090E02FEFFC0120838BE290E0FC011082A4
:1012B0008EE0ECEAF1E0DE011A9601900D928A953B
:1012C000E1F787E090E098878F838FEF89878985A2
:1012D0008093E00184E190E0A0E0B0E08093E10140
:1012E0009093E201A093E301B093E4018091E101C6
:1012F0009091E201A091E301B091E4018093E501B6
:101300009093E601A093E701B093E80185E194E0B2
:101310009093EA018093E90189858093EB0181E054
:1013200090E0A0E0B0E08093EC019093ED01A093F9
:10133000EE01B093EF018091EC019091ED01A0914D
:10134000EE01B091EF018093F0019093F101A09331
:10135000F201B093F3018AEC94E09093F50180934D
:10136000F40189858093F60184EF91E0A0E0B0E07C
:101370008093F7019093F801A093F901B093FA01DB
:101380008091F7019091F801A091F901B091FA01D3
:101390008093FB019093FC01A093FD01B093FE01AB
:1013A00083E297E0909300028093FF018985809308
:1013B000010282E390E0A0E0B0E08093020290930B
:1013C0000302A0930402B09305028091020290915F
:1013D0000302A0910402B09105028093060290934B
:1013E0000702A0930802B093090286E897E0909361
:1013F0000B0280930A02898580930C0284E190E0BD
:10140000A0E0B0E080930D0290930E02A0930F0233
:10141000B093100280910D0290910E02A0910F02E4
:10142000B09110028093110290931202A0931302C4
:10143000B093140288EE97E0909316028093150201
:1014400089858093170284EF91E0A0E0B0E080935B
:10145000180290931902A0931A02B0931B02809174
:10146000180290911902A0911A02B0911B02809368
:101470001C0290931D02A0931E02B0931F0284E3EE
:1014800098E0909321028093200289858093220224
:1014900084E690E0A0E0B0E08093230290932402E1
:1014A000A0932502B0932602809118029091190210
:1014B000A0911A02B0911B028093270290932802F8
:1014C000A0932902B0932A028DEB98E090932C020E
:1014D00080932B028A859B85FC0181819281A38167
:1014E000B4818B839C83AD83BE8381E090E09A833B
:1014F000898325C089819A81880F991F9E012F5F5A
:101500003F4F820F931F0996FC0180819181FC015E
:1015100021813281438154818B819C81AD81BE8147
:10152000BC01CD010E942302DC01CB018B839C8393
:10153000AD83BE8389819A8101969A8389832981AB
:101540003A818F81988528173907A0F28B819C8179
:10155000AD81BE81BC01CD010E9420030E947002BA
:101560000E94EE031A821982A0C089819A81880F95
:10157000991F9E012F5F3F4F820F931F0996FC0119
:1015800080819181FC012581368147815085898147
:101590009A81880F991FBE016F5F7F4F860F971F3B
:1015A0000996FC0180819181FC0181819281A38156
:1015B000B481281739074A075B0708F445C08981B9
:1015C0009A81880F991F9E012F5F3F4F820F931FB3
:1015D0000996FC010081118189819A81880F991FE8
:1015E0009E012F5F3F4F820F931F0996FC01808160
:1015F0009181FC012185328589819A81880F991F0B
:10160000AE014F5F5F4F840F951F0996FC018081EB
:101610009181FC018081082E000C990BF90109953C
:10162000F801808389819A81880F991F9E012F5F1D
:101630003F4F820F931F0996FC0180819181FC012D
:10164000158216821782108689819A81880F991FC8
:101650009E012F5F3F4F820F931F0996FC0160810F
:10166000718189819A81880F991F9E012F5F3F4F59
:10167000820F931F0996FC0180819181FC012581D5
:101680003681478150858B819C81AD81BE81820FDF
:10169000931FA41FB51FFB0185839683A783B08783
:1016A00089819A8101969A83898329813A818F81E0
:1016B00098852817390708F458CF00008091BA019F
:1016C0008823E1F31092BA014DCFA1E21A2EAA1B92
:1016D000BB1BFD010DC0AA1FBB1FEE1FFF1FA217E2
:1016E000B307E407F50720F0A21BB30BE40BF50BDF
:1016F000661F771F881F991F1A9469F76095709568
:10170000809590959B01AC01BD01CF010895EE0F2E
:10171000FF1F0024001C0BBE0790F691E02D0994DA
:101720000E943D0C08F481E008950E94A90B0C94DE
:10173000780C0E94710C58F00E946A0C40F029F459
:101740005F3F29F00C94610C51110C94AC0C0C947B
:10175000670C0E94890C68F39923B1F3552391F328
:10176000951B550BBB27AA2762177307840738F010
:101770009F5F5F4F220F331F441FAA1FA9F335D06D
:101780000E2E3AF0E0E832D091505040E695001C21
:10179000CAF72BD0FE2F29D0660F771F881FBB1FDB
:1017A000261737074807AB07B0E809F0BB0B802DB9
:1017B000BF01FF2793585F4F3AF09E3F510578F0E5
:1017C0000C94610C0C94AC0C5F3FE4F3983ED4F3A2
:1017D000869577956795B795F7959F5FC9F7880FB9
:1017E000911D9695879597F90895E1E0660F771F0B
:1017F000881FBB1F621773078407BA0720F0621B9C
:10180000730B840BBA0BEE1F88F7E09508950E94C6
:101810000E0C6894B1110C94AC0C08950E94910CBC
:1018200088F09F5798F0B92F9927B751B0F0E1F0A1
:10183000660F771F881F991F1AF0BA95C9F714C051
:10184000B13091F00E94AB0CB1E008950C94AB0C58
:10185000672F782F8827B85F39F0B93FCCF386958A
:1018600077956795B395D9F73EF4909580957095E7
:1018700061957F4F8F4F9F4F0895990F0008550F27
:10188000AA0BE0E8FEEF16161706E807F907C0F006
:1018900012161306E407F50798F0621B730B840B0E
:1018A000950B39F40A2661F0232B242B252B21F4E8
:1018B00008950A2609F4A140A6958FEF811D811D88
:1018C000089597F99F6780E870E060E008959FEFC2
:1018D00080EC089500240A941616170618060906C7
:1018E000089500240A941216130614060506089596
:1018F000092E0394000C11F4882352F0BB0F40F41E
:10190000BF2B11F460FF04C06F5F7F4F8F4F9F4F5D
:10191000089557FD9058440F551F59F05F3F71F0DF
:101920004795880F97FB991F61F09F3F79F0879546
:101930000895121613061406551FF2CF4695F1DFCF
:1019400008C0161617061806991FF1CF869571055F
:10195000610508940895E894BB2766277727CB0193
:1019600097F908950E943D0C08F48FEF08950E94A6
:10197000CA0C0C94780C0E946A0C38F00E94710C0E
:1019800020F0952311F00C94610C0C94670C112439
:101990000C94AC0C0E94890C70F3959FC1F3950FC9
:1019A00050E0551F629FF001729FBB27F00DB11DE3
:1019B000639FAA27F00DB11DAA1F649F6627B00D73
:1019C000A11D661F829F2227B00DA11D621F739F5C
:1019D000B00DA11D621F839FA00D611D221F749F6A
:1019E0003327A00D611D231F849F600D211D822FB1
:1019F000762F6A2F11249F5750409AF0F1F08823D8
:101A00004AF0EE0FFF1FBB1F661F771F881F915004
:101A10005040A9F79E3F510580F00C94610C0C9446
:101A2000AC0C5F3FE4F3983ED4F3869577956795C9
:101A3000B795F795E7959F5FC1F7FE2B880F911D2E
:0C1A40009695879597F90895F894FFCFCC
:101A4C000000000200000000BF00000000000100C8
:101A5C00000010003C42464A5262423C08182808DA
:101A6C000808083C384444047C40407C3C04040492
:101A7C003C04043C444444447E0404047C40404004
:101A8C007C04047C7C4440407C44447C3C444404C2
:101A9C00040404047C4444447C44447C7C44447CE2
:101AAC000404447C102844447C4444447C42427CDE
:101ABC004442427C3844404040404438784442429E
:101ACC004242447800925438FE3854922424FF2425
:101ADC0024FF2424E8A8EE8025557252FFFFFFFF57
:101AEC00FFFFFFFF01060021120C1221E001EB01A8
:0A1AFC00F60101020C02170222029B
:00000001FF
