:100000000C949E000C94BD000C94BD000C94BD009B
:100010000C94BD000C94BD000C94BD000C94BD006C
:100020000C94BD000C94BD000C94BD000C94BD005C
:100030000C94BD000C94BE020C94BD000C94BD0049
:100040000C94BD000C94BD000C94BD000C94BD003C
:100050000C94BD000C94BD000C94BD000C94BD002C
:100060000C94BD000C94BD000C94BD000C94BD001C
:100070000C94BD000C94BD000C94BD000C94BD000C
:100080000C94BD000C94BD000C94BD007E03F303E2
:10009000F303F303F303F303F303F303F303F303B0
:1000A000F303F303F303F303F303F303F303F303A0
:1000B000F303F303F303F303F303F303F303F30390
:1000C000F303F303F303F303F303F303F303F30380
:1000D000F303EC03F303F303F303F303F303F30377
:1000E000E503F303F303F303F303F30385038A0345
:1000F000910398039F03A603AD03B403BB03C2039C
:10010000F303F303F303F303F303F303F303C90369
:10011000D003D703DE0325043E045704700489048A
:10012000A204BB04D404ED0406051F0538055105DF
:100130006A0583059C05B505CE05E70511241FBE9C
:10014000CFEFD0E4DEBFCDBF11E0A0E0B1E0E6E745
:10015000F4E100E00BBF02C007900D92A63BB1078F
:10016000D9F722E0A6EBB1E001C01D92AA31B20797
:10017000E1F70E94F6070C94390A0C940000CF9323
:10018000DF9300D01F92CDB7DEB789837B836A836C
:1001900089818A3031F48A819B81BC018DE00E9483
:1001A000BF0080EC90E0FC018081882F90E080729D
:1001B0009927892BB1F386EC90E02981FC012083FB
:1001C00080E090E00F900F900F90DF91CF91089515
:1001D000CF93DF9300D01F92CDB7DEB789836A83B8
:1001E0004B838B81882371F08A81282F30E081E056
:1001F00090E002C0880F991F2A95E2F7982F898115
:10020000892B0EC08A81282F30E081E090E002C067
:10021000880F991F2A95E2F7982F90958981892355
:100220000F900F900F90DF91CF910895CF93DF93B0
:1002300000D0CDB7DEB789836A838A81282F30E06A
:1002400081E090E002C0880F991F2A95E2F7982F6D
:10025000898189230F900F90DF91CF9108950F939B
:100260001F93CF93DF93CDB7DEB702E210E040E0FB
:1002700064E08FEF0E94E800F8018083000080E2D4
:1002800090E0FC018081809560E00E941601882347
:1002900011F081E3D3C080E290E0FC018081809581
:1002A00061E00E941601882311F084E3C7C080E258
:1002B00090E0FC018081809562E00E941601882315
:1002C00011F087E3BBC080E290E0FC018081809563
:1002D00063E00E941601882311F08AE2AFC002E2B7
:1002E00010E040E065E08FEF0E94E800F8018083B5
:1002F000000080E290E0FC018081809560E00E9437
:100300001601882311F082E399C080E290E0FC019D
:100310008081809561E00E941601882311F085E3B9
:100320008DC080E290E0FC018081809562E00E94B7
:100330001601882311F088E381C080E290E0FC017F
:100340008081809563E00E941601882311F080E38C
:1003500075C002E210E040E066E08FEF0E94E80026
:10036000F8018083000080E290E0FC0180818095AC
:1003700060E00E941601882311F083E35FC080E2F1
:1003800090E0FC018081809561E00E941601882345
:1003900011F086E353C080E290E0FC0180818095FB
:1003A00062E00E941601882311F089E347C080E2D1
:1003B00090E0FC018081809563E00E941601882313
:1003C00011F083E23BC002E210E040E067E08FEF13
:1003D0000E94E800F8018083000080E290E0FC01C8
:1003E0008081809560E00E941601882311F081E4ED
:1003F00025C080E290E0FC018081809561E00E9450
:100400001601882311F082E419C080E290E0FC011B
:100410008081809562E00E941601882311F083E4B8
:100420000DC080E290E0FC018081809563E00E9435
:100430001601882311F084E401C080E0DF91CF91A0
:100440001F910F910895CF93DF93CDB7DEB72C970F
:100450000FB6F894DEBF0FBECDBF6D837E838F8352
:10046000988729873A874B875C878D819E81AF81EA
:10047000B88529853A854B855C85BC01CD010E94F4
:100480000E0ADC01CB0189839A83AB83BC8389810B
:100490009A81AB81BC81892B8A2B8B2B29F489858E
:1004A0009A85AB85BC8511C089859A85AB85BC854D
:1004B0008D839E83AF83B88789819A81AB81BC810C
:1004C00089879A87AB87BC87D0CFBC01CD012C969A
:1004D0000FB6F894DEBF0FBECDBFDF91CF91089568
:1004E000CF93DF93CDB7DEB781E890E02BE0FC013E
:1004F000208388E890E02DE730E0FC013183208301
:100500008FE690E022E0FC01208384E890E0FC018B
:100510001182108280910E0190910F01A091100123
:10052000B09111018093B7019093B801A093B901E4
:10053000B093BA018FE590E02FE530E0F90120811A
:100540002068FC0120830000DF91CF910895CF93B4
:10055000DF93CDB7DEB781E890E0FC0110820000A8
:10056000DF91CF910895CF93DF93CDB7DEB781E0D0
:100570008093B6010000DF91CF9108951F920F92F2
:1005800000905F000F92112400905B000F922F9358
:100590003F934F935F936F937F938F939F93AF930B
:1005A000BF93EF93FF93CF93DF93CDB7DEB78091E7
:1005B000B7019091B801A091B901B091BA0101972A
:1005C000A109B1098093B7019093B801A093B90133
:1005D000B093BA018091B7019091B801A091B9018F
:1005E000B091BA01892B8A2B8B2B91F40E94B30214
:1005F00080910E0190910F01A0911001B091110115
:100600008093B7019093B801A093B901B093BA0158
:100610000000DF91CF91FF91EF91BF91AF919F913A
:100620008F917F916F915F914F913F912F910F909B
:1006300000925B000F9000925F000F901F90189542
:10064000CF93DF9300D000D0CDB7DEB769837A8334
:100650008B839C8389819A81AB81BC8180930E01BD
:1006600090930F01A0931001B093110180910E019E
:1006700090910F01A0911001B09111018093B701E9
:100680009093B801A093B901B093BA0100000F9004
:100690000F900F900F90DF91CF910895CF93DF933C
:1006A00000D01F92CDB7DEB79B838A838A819B815E
:1006B000892B19F41B821A8203C01B821A82000044
:1006C0008A819B81892B09F096C00E942F01898322
:1006D0008981882F90E0092E000CAA0BBB0B40E00B
:1006E00050E024E430E0841B950B2817390708F408
:1006F0007AC08A5B9F4FFC010C94300A80E190E045
:10070000909313018093120175C0109213011092FF
:10071000120170C081E090E0909313018093120168
:1007200069C082E090E0909313018093120162C04F
:1007300083E090E090931301809312015BC084E00A
:1007400090E0909313018093120154C085E090E0F3
:1007500090931301809312014DC086E090E0909336
:1007600013018093120146C087E090E0909313013B
:10077000809312013FC088E090E090931301809332
:10078000120138C089E090E0909313018093120128
:1007900031C08AE090E090931301809312012AC047
:1007A0008BE090E0909313018093120123C08CE0C2
:1007B00090E090931301809312011CC08DE090E0B3
:1007C000909313018093120115C08EE090E09093F6
:1007D0001301809312010EC08FE090E090931301FB
:1007E0008093120107C080E190E090931301809301
:1007F0001201000000008A819B810F900F900F90E2
:10080000DF91CF910895CF93DF93CDB7DEB7AA974D
:100810000FB6F894DEBF0FBECDBF9AA789A780910F
:10082000120190911301CC01A0E0B0E040E050E053
:1008300022E130E0841B950B2817390708F4E0C14A
:1008400085579F4FFC010C94300A1A82198211C0FF
:1008500089819A818C5E9E4FFC01208189819A81D9
:1008600084539E4FFC01208389819A8101969A834B
:10087000898389819A81089758F3DBC11C821B8286
:1008800011C08B819C81845E9E4FFC0120818B81F5
:100890009C8184539E4FFC0120838B819C81019617
:1008A0009C838B838B819C81089758F3C2C11E82E5
:1008B0001D8211C08D819E818C5D9E4FFC01208127
:1008C0008D819E8184539E4FFC0120838D819E816A
:1008D00001969E838D838D819E81089758F3A9C1CF
:1008E00018861F8211C08F819885845D9E4FFC0100
:1008F00020818F81988584539E4FFC0120838F81B6
:100900009885019698878F838F819885089758F3EB
:1009100090C11A86198611C089859A858C5C9E4F74
:10092000FC01208189859A8584539E4FFC01208398
:1009300089859A8501969A87898789859A850897F6
:1009400058F377C11C861B8611C08B859C85845CFF
:100950009E4FFC0120818B859C8584539E4FFC011A
:1009600020838B859C8501969C878B878B859C85B6
:10097000089758F35EC11E861D8611C08D859E8521
:100980008C5B9E4FFC0120818D859E8584539E4FFC
:10099000FC0120838D859E8501969E878D878D85A0
:1009A0009E85089758F345C1188A1F8611C08F8508
:1009B0009889845B9E4FFC0120818F8598898453A0
:1009C0009E4FFC0120838F8598890196988B8F8795
:1009D0008F859889089758F32CC11A8A198A11C0F3
:1009E00089899A898C5A9E4FFC01208189899A892C
:1009F00084539E4FFC01208389899A8901969A8BA2
:100A0000898B89899A89089758F313C11C8A1B8A94
:100A100011C08B899C89845A9E4FFC0120818B894F
:100A20009C8984539E4FFC0120838B899C8901966D
:100A30009C8B8B8B8B899C89089758F3FAC01E8AF4
:100A40001D8A11C08D899E898C599E4FFC01208181
:100A50008D899E8984539E4FFC0120838D899E89B8
:100A600001969E8B8D8B8D899E89089758F3E1C0E6
:100A7000188E1F8A11C08F89988D84599E4FFC0152
:100A800020818F89988D84539E4FFC0120838F890C
:100A9000988D0196988F8F8B8F89988D089758F332
:100AA000C8C01A8E198E11C0898D9A8D8C589E4F90
:100AB000FC012081898D9A8D84539E4FFC012083F7
:100AC000898D9A8D01969A8F898F898D9A8D089735
:100AD00058F3AFC01C8E1B8E11C08B8D9C8D84581B
:100AE0009E4FFC0120818B8D9C8D84539E4FFC0179
:100AF00020838B8D9C8D01969C8F8B8F8B8D9C8DF5
:100B0000089758F396C01E8E1D8E11C08D8D9E8D38
:100B10008C579E4FFC0120818D8D9E8D84539E4F5E
:100B2000FC0120838D8D9E8D01969E8F8D8F8D8DE6
:100B30009E8D089758F37DC018A21F8E11C08F8D0F
:100B400098A184579E4FFC0120818F8D98A18453DA
:100B50009E4FFC0120838F8D98A1019698A38F8FC3
:100B60008F8D98A1089758F364C01AA219A211C0DA
:100B700089A19AA185549E4FFC01208189A19AA147
:100B800084539E4FFC01208389A19AA101969AA3C8
:100B900089A389A19AA1089758F34BC01CA21BA254
:100BA00011C08BA19CA18C569E4FFC0120818BA172
:100BB0009CA184539E4FFC0120838BA19CA1019694
:100BC0009CA38BA38BA19CA1089758F332C01EA2B3
:100BD0001DA211C08DA19EA184569E4FFC012081B3
:100BE0008DA19EA184539E4FFC0120838DA19EA1C7
:100BF00001969EA38DA38DA19EA1089758F319C0BD
:100C000018A61FA211C08FA198A585549E4FFC0164
:100C100020818FA198A584539E4FFC0120838FA132
:100C200098A5019698A78FA38FA198A5089758F328
:100C3000000089A59AA5892B19F01AA619A601C04A
:100C4000000089A59AA5892B09F02BC08091D401B9
:100C5000883031F41092D40181E08093A40120C047
:100C60008091D40191E0980F9093D401882F90E067
:100C700084539E4FFC0180818093D50188E290E0EF
:100C80002091D5012095FC0120838BE290E02091FA
:100C9000A401FC0120838091A401880F8093A4010A
:100CA000000089A59AA5AA960FB6F894DEBF0FBEDC
:100CB000CDBFDF91CF910895CF93DF9300D0CDB713
:100CC000DEB79A83898389819A8181309105A9F061
:100CD00082309105B9F0892B29F58091C30190915B
:100CE000C401892B29F081E090E09A8389831CC09C
:100CF00082E090E09A83898317C082E090E09A8333
:100D0000898312C08091C3019091C401892B29F07D
:100D100081E090E09A83898307C082E090E09A8323
:100D2000898302C01A82198289819A818130910552
:100D300049F08230910551F0892B09F00AC01092D8
:100D4000C90107C080E28093C90103C01092C901A4
:100D5000000085E290E025E230E0F90120812F7D5E
:100D60003091C901232B3091CB01232BFC0120832F
:100D700089819A810F900F90DF91CF910895CF9341
:100D8000DF9300D0CDB7DEB79A83898389819A81BA
:100D9000892B19F41A82198202C01A821982898158
:100DA0009A81892B09F037C08091C5019091C601C5
:100DB00082309105C1F0833091052CF4009761F0E9
:100DC000019769F020C084309105A9F08430910525
:100DD00074F00597A1F017C01092CA011BC081E002
:100DE0008093CA0117C083E08093CA0113C087E0D3
:100DF0008093CA010FC08FE08093CA010BC08FE1BE
:100E00008093CA0107C01092CA011092C6011092C5
:100E1000C5010000000085E290E025E230E0F90124
:100E20002081207E3091CA01232B3091CB01232BCE
:100E3000FC01208389819A810F900F90DF91CF91DF
:100E40000895CF93DF9300D01F92CDB7DEB79B8379
:100E50008A8383E290E0FC01808180958078898399
:100E60008A819B81009719F00197A9F01FC08981A1
:100E7000882371F081E090E09B838A838091C50193
:100E80009091C60101969093C6018093C50113C04D
:100E90001B821A8210C08981882329F081E090E0AA
:100EA0009B838A8308C01B821A8205C081E090E080
:100EB0009B838A8300008A819B81009719F00197A8
:100EC00019F003C0000001C000008A819B810F90CF
:100ED0000F900F90DF91CF910895CF93DF93CDB70F
:100EE000DEB729970FB6F894DEBF0FBECDBF998746
:100EF000888785E0E5EAF1E0DE01139601900D9226
:100F00008A95E1F786E090E09A83898388859985C0
:100F1000009719F0019779F01CC08091C70190915A
:100F2000C801892B19F01986188618C081E090E055
:100F30009987888713C08091C7019091C801892B38
:100F400019F0198618860AC081E090E09987888791
:100F500005C081E090E099878887000088859985A1
:100F6000009719F00197B1F136C08091D6019091A8
:100F7000D7019C012F5F3F4F3093D7012093D601BB
:100F80009E012D5F3F4F820F931FFC018081809354
:100F9000CB018091D6019091D7019C0189819A81E2
:100FA0002817390720F01092D7011092D60185E258
:100FB00090E025E230E0F9012081207C3091C901E8
:100FC000232B3091CA01232B3091CB01232BFC0121
:100FD000208301C000008885998529960FB6F89472
:100FE000DEBF0FBECDBFDF91CF9108950F931F934A
:100FF000CF93DF93CDB7DEB765970FB6F894DEBF1A
:101000000FBECDBF81E290E020EFFC01208382E2A1
:1010100090E02FE0FC01208384E290E02FE3FC01CC
:10102000208385E290E020ECFC01208387E290E0C1
:101030002FEFFC01208388E290E0FC0110828AE21D
:1010400090E02FEFFC0120838BE290E0FC01108206
:101050008CE0EAEAF1E0DE011A9601900D928A95A1
:10106000E1F786E090E098878F838FEF8987898505
:101070008093D80184E190E0A0E0B0E08093D901B2
:101080009093DA01A093DB01B093DC018091D90148
:101090009091DA01A091DB01B091DC018093DD0138
:1010A0009093DE01A093DF01B093E0018EE493E022
:1010B0009093E2018093E10189858093E30181E0CF
:1010C00090E0A0E0B0E08093E4019093E501A0936C
:1010D000E601B093E7018091E4019091E501A091D0
:1010E000E601B091E7018093E8019093E901A093B4
:1010F000EA01B093EB0183E094E09093ED018093DB
:10110000EC0189858093EE0184EF91E0A0E0B0E0EE
:101110008093EF019093F001A093F101B093F2015D
:101120008091EF019091F001A091F101B091F20155
:101130008093F3019093F401A093F501B093F6012D
:101140008CE596E09093F8018093F7018985809370
:10115000F90182E390E0A0E0B0E08093FA0190937F
:10116000FB01A093FC01B093FD018091FA019091E5
:10117000FB01A091FC01B091FD018093FE019093D1
:10118000FF01A0930002B09301028FEB96E09093D1
:1011900003028093020289858093040284E190E037
:1011A000A0E0B0E08093050290930602A0930702AE
:1011B000B09308028091050290910602A091070267
:1011C000B09108028093090290930A02A0930B0247
:1011D000B0930C0281E297E090930E0280930D028F
:1011E000898580930F0284EF91E0A0E0B0E08093C6
:1011F000100290931102A0931202B09313028091F7
:10120000100290911102A0911202B09113028093EA
:10121000140290931502A0931602B09317028DE664
:1012200097E090931902809318028A859B85FC01B0
:1012300081819281A381B4818B839C83AD83BE83A2
:1012400081E090E09A83898325C089819A81880F03
:10125000991F9E012F5F3F4F820F931F0996FC013C
:1012600080819181FC0121813281438154818B8174
:101270009C81AD81BE81BC01CD010E942302DC01B5
:10128000CB018B839C83AD83BE8389819A81019638
:101290009A83898329813A818F8198852817390714
:1012A000A0F28B819C81AD81BE81BC01CD010E94E9
:1012B00020030E9470021A821982A0C089819A813B
:1012C000880F991F9E012F5F3F4F820F931F099632
:1012D000FC0180819181FC01258136814781508507
:1012E00089819A81880F991FBE016F5F7F4F860F9A
:1012F000971F0996FC0180819181FC018181928177
:10130000A381B481281739074A075B0708F445C051
:1013100089819A81880F991F9E012F5F3F4F820F0D
:10132000931F0996FC010081118189819A81880FA0
:10133000991F9E012F5F3F4F820F931F0996FC015B
:1013400080819181FC012185328589819A81880F74
:10135000991FAE014F5F5F4F840F951F0996FC01E7
:1013600080819181FC018081082E000C990BF9018C
:101370000995F801808389819A81880F991F9E01C0
:101380002F5F3F4F820F931F0996FC01808191814F
:10139000FC01158216821782108689819A81880F36
:1013A000991F9E012F5F3F4F820F931F0996FC01EB
:1013B0006081718189819A81880F991F9E012F5FB9
:1013C0003F4F820F931F0996FC0180819181FC01A0
:1013D00025813681478150858B819C81AD81BE817D
:1013E000820F931FA41FB51FFB0185839683A783DC
:1013F000B08789819A8101969A83898329813A816C
:101400008F8198852817390708F458CF00008091FC
:10141000B6018823E1F31092B6014DCFA1E21A2E56
:10142000AA1BBB1BFD010DC0AA1FBB1FEE1FFF1F88
:10143000A217B307E407F50720F0A21BB30BE40BD8
:10144000F50B661F771F881F991F1A9469F760951F
:101450007095809590959B01AC01BD01CF010895D9
:10146000EE0FFF1F0024001C0BBE0790F691E02D2D
:061470000994F894FFCF7F
:101476000000000200000000BF00000000000100A4
:10148600000010003C42464A5262423C08182808B6
:101496000808083C384444047C40407C3C0404046E
:1014A6003C04043C444444447E0404047C404040E0
:1014B6007C04047C7C4440407C44447C3C4444049E
:1014C600040404047C4444447C44447C7C44447CBE
:1014D6000404447C102844447C4444447C42427CBA
:1014E6004442427C3844404040404438784442427A
:1014F6004242447800925438FE3854922424FF2401
:1015060024FF2424E8A8EE8025557252FFFFFFFF32
:10151600FFFFFFFF0121120C1221D801E301EE01AA
:06152600F90104020F02AE
:00000001FF
