:100000000C94B4000C94D3000C94D3000C94D30043
:100010000C94D3000C94D3000C94D3000C94D30014
:100020000C94D3000C94D3000C94D3000C94D30004
:100030000C94D3000C94D4020C94D3000C94D300F1
:100040000C94D3000C94D3000C94D3000C94D300E4
:100050000C94D3000C94D3000C94D3000C94D300D4
:100060000C94D3000C94D3000C94D3000C94D300C4
:100070000C94D3000C94D3000C94D3000C94D300B4
:100080000C94D3000C94D3000C94D3007C04F104A2
:10009000F104F104F104F104F104F104F104F104B8
:1000A000F104F104F104F104F104F104F104F104A8
:1000B000F104F104F104F104F104F104F104F10498
:1000C000F104F104F104F104F104F104F104F10488
:1000D000F104EA04F104F104F104F104F104F1047F
:1000E000E304F104F104F104F104F104830488044D
:1000F0008F0496049D04A404AB04B204B904C004A4
:10010000F104F104F104F104F104F104F104C70471
:10011000CE04D504DC0424053D0556056F0588058D
:10012000A105BA05D305EC0505061E0637065006DF
:10013000690682069B06B406CD06E606FF0618078A
:10014000BA09C809DE09EE090D0A300A710A990ACE
:10015000AD0ABD0AE30A020B260B530B5A0B8C0B9C
:100160008C0B650B760B810B11241FBECFEFD0E4F7
:10017000DEBFCDBF11E0A0E0B1E0E8EAF0E200E0D0
:100180000BBF02C007900D92AC3DB107D9F722E03A
:10019000ACEDB1E001C01D92A236B207E1F70E94BA
:1001A000940B0C9452100C940000CF93DF9300D06A
:1001B0001F92CDB7DEB789837B836A8389818A30BA
:1001C00031F48A819B81BC018DE00E94D50080ECD6
:1001D00090E0FC018081882F90E080729927892B24
:1001E000B1F386EC90E02981FC01208380E090E06F
:1001F0000F900F900F90DF91CF910895CF93DF93E1
:1002000000D01F92CDB7DEB789836A834B838B8181
:10021000882371F08A81282F30E081E090E002C0CD
:10022000880F991F2A95E2F7982F8981892B0EC094
:100230008A81282F30E081E090E002C0880F991F6A
:100240002A95E2F7982F9095898189230F900F9036
:100250000F90DF91CF910895CF93DF9300D0CDB76A
:10026000DEB789836A838A81282F30E081E090E0BD
:1002700002C0880F991F2A95E2F7982F8981892358
:100280000F900F90DF91CF9108950F931F93CF930D
:10029000DF93CDB7DEB702E210E040E064E08FEF1D
:1002A0000E94FE00F8018083000080E290E0FC01E3
:1002B0008081809560E00E942C01882311F081E309
:1002C000D3C080E290E0FC018081809561E00E94D3
:1002D0002C01882311F084E3C7C080E290E0FC0188
:1002E0008081809562E00E942C01882311F087E3D1
:1002F000BBC080E290E0FC018081809563E00E94B9
:100300002C01882311F08AE2AFC002E210E040E045
:1003100065E08FEF0E94FE00F8018083000080E21C
:1003200090E0FC018081809560E00E942C01882390
:1003300011F082E399C080E290E0FC018081809519
:1003400061E00E942C01882311F085E38DC080E2DA
:1003500090E0FC018081809562E00E942C0188235E
:1003600011F088E381C080E290E0FC0180818095FB
:1003700063E00E942C01882311F080E375C002E243
:1003800010E040E066E08FEF0E94FE00F8018083FD
:10039000000080E290E0FC018081809560E00E9496
:1003A0002C01882311F083E35FC080E290E0FC0120
:1003B0008081809561E00E942C01882311F086E302
:1003C00053C080E290E0FC018081809562E00E9451
:1003D0002C01882311F089E347C080E290E0FC0102
:1003E0008081809563E00E942C01882311F083E2D4
:1003F0003BC002E210E040E067E08FEF0E94FE00A9
:10040000F8018083000080E290E0FC01808180950B
:1004100060E00E942C01882311F081E425C080E275
:1004200090E0FC018081809561E00E942C0188238E
:1004300011F082E419C080E290E0FC018081809597
:1004400062E00E942C01882311F083E40DC080E259
:1004500090E0FC018081809563E00E942C0188235C
:1004600011F084E401C080E0DF91CF911F910F91E2
:100470000895CF93DF93CDB7DEB72C970FB6F894DE
:10048000DEBF0FBECDBF6D837E838F8398872987A4
:100490003A874B875C878D819E81AF81B88529859E
:1004A0003A854B855C85BC01CD010E94F80DDC01CD
:1004B000CB0189839A83AB83BC8389819A81AB8189
:1004C000BC81892B8A2B8B2B29F489859A85AB8556
:1004D000BC8511C089859A85AB85BC858D839E833B
:1004E000AF83B88789819A81AB81BC8189879A87DC
:1004F000AB87BC87D0CFBC01CD012C960FB6F8944A
:10050000DEBF0FBECDBFDF91CF910895CF93DF93B4
:10051000CDB7DEB781E890E02BE0FC01208388E8CE
:1005200090E02DE730E0FC01318320838FE690E0FE
:1005300022E0FC01208384E890E0FC01118210821B
:1005400080910E0190910F01A0911001B0911101C5
:100550008093DD019093DE01A093DF01B093E00171
:100560008FE590E02FE530E0F90120812068FC0163
:1005700020830000DF91CF910895CF93DF93CDB713
:10058000DEB781E890E0FC0110820000DF91CF919E
:100590000895CF93DF93CDB7DEB781E08093DC0180
:1005A0000000DF91CF9108951F920F9200905F009D
:1005B0000F92112400905B000F922F933F934F9363
:1005C0005F936F937F938F939F93AF93BF93EF93BB
:1005D000FF93CF93DF93CDB7DEB78091DD0190918C
:1005E000DE01A091DF01B091E0010197A109B109FD
:1005F0008093DD019093DE01A093DF01B093E001D1
:100600008091DD019091DE01A091DF01B091E001C8
:10061000892B8A2B8B2B91F40E94C90280910E01A9
:1006200090910F01A0911001B09111018093DD0113
:100630009093DE01A093DF01B093E0010000DF9111
:10064000CF91FF91EF91BF91AF919F918F917F914A
:100650006F915F914F913F912F910F9000925B00AE
:100660000F9000925F000F901F901895CF93DF932B
:1006700000D000D0CDB7DEB769837A838B839C83AB
:1006800089819A81AB81BC8180930E0190930F0187
:10069000A0931001B093110180910E0190910F0170
:1006A000A0911001B09111018093DD019093DE01C2
:1006B000A093DF01B093E00100000F900F900F9026
:1006C0000F90DF91CF9108950F931F93CF93DF93F6
:1006D00000D000D0CDB7DEB769837A838B839C834B
:1006E0008091FE019091FF01A0910002B091010262
:1006F0009C01AD0169817A818B819C810E94230ECE
:10070000882309F477C020E030E0A90169817A816B
:100710008B819C810E94230E882351F481E990E013
:1007200021E930E0F90120812870FC01208309C013
:1007300081E990E021E930E0F90120812360FC01AA
:10074000208328E539E344E75FE369817A818B817F
:100750009C810E94230E882344F488E990E02FEFC7
:100760003FEFFC013183208334C020E034E244EFCA
:1007700056E469817A818B819C810E94450F18160D
:1007800034F488E990E0FC011182108222C008E96B
:1007900010E020E030E040E053E469817A818B8111
:1007A0009C810E944A0FDC01CB019C01AD0160E0FD
:1007B00074E284EF9AE40E94280EDC01CB01BC01B4
:1007C000CD010E949A0EDC01CB010197F8019183C3
:1007D000808384E990E0FC011182108289819A81F2
:1007E000AB81BC818093FE019093FF01A093000236
:1007F000B093010200000F900F900F900F90DF91C7
:10080000CF911F910F910895CF93DF93CDB7DEB7AE
:1008100080E990E020E4FC01208381E990E02BE076
:10082000FC01208360E070E0CB010E9464030000C3
:10083000DF91CF910895CF93DF93CDB7DEB780E9F5
:1008400090E0FC01108281E990E0FC011082000040
:10085000DF91CF910895CF93DF9300D01F92CDB752
:10086000DEB79B838A838A819B81009719F0019769
:1008700079F01CC08091F1019091F201892B19F05F
:100880001B821A8218C081E090E09B838A8313C088
:100890008091F1019091F201892B19F01B821A824B
:1008A0000AC081E090E09B838A8305C081E090E0EC
:1008B0009B838A8300008A819B81009721F00197A6
:1008C00009F497C097C00E94450189838981882FC8
:1008D00090E0092E000CAA0BBB0B40E050E024E492
:1008E00030E0841B950B2817390708F47AC08A5B1F
:1008F0009F4FFC010C941A0E80E190E0909313013D
:100900008093120175C0109213011092120170C0F1
:1009100081E090E0909313018093120169C082E01E
:1009200090E0909313018093120162C083E090E005
:1009300090931301809312015BC084E090E0909348
:1009400013018093120154C085E090E0909313014D
:10095000809312014DC086E090E090931301809344
:10096000120146C087E090E090931301809312013A
:100970003FC088E090E0909313018093120138C04B
:1009800089E090E0909313018093120131C08AE0D6
:1009900090E090931301809312012AC08BE090E0C5
:1009A000909313018093120123C08CE090E0909308
:1009B0001301809312011CC08DE090E0909313010D
:1009C0008093120115C08EE090E090931301809304
:1009D00012010EC08FE090E09093130180931201FA
:1009E00007C080E190E09093130180931201000012
:1009F00001C000008A819B810F900F900F90DF91C2
:100A0000CF910895CF93DF93CDB7DEB7AE970FB6F2
:100A1000F894DEBF0FBECDBF9EA78DA780911201B7
:100A200090911301CC01A0E0B0E040E050E024E15F
:100A300030E0841B950B2817390708F412C285573C
:100A40009F4FFC010C941A0E1A82198211C08981E1
:100A50009A818C5E9E4FFC01208189819A818A5007
:100A60009E4FFC01208389819A8101969A83898314
:100A700089819A81089758F30DC21C821B8211C08C
:100A80008B819C81845E9E4FFC0120818B819C81A7
:100A90008A509E4FFC0120838B819C8101969C8310
:100AA0008B838B819C81089758F3F4C11E821D8231
:100AB00011C08D819E818C5D9E4FFC0120818D81B6
:100AC0009E818A509E4FFC0120838D819E810196DC
:100AD0009E838D838D819E81089758F3DBC1188694
:100AE0001F8211C08F819885845D9E4FFC012081FB
:100AF0008F8198858A509E4FFC0120838F81988535
:100B0000019698878F838F819885089758F3C2C183
:100B10001A86198611C089859A858C5C9E4FFC01C6
:100B2000208189859A858A509E4FFC012083898582
:100B30009A8501969A87898789859A85089758F3B7
:100B4000A9C11C861B8611C08B859C85845C9E4F29
:100B5000FC0120818B859C858A509E4FFC0120835F
:100B60008B859C8501969C878B878B859C850897B8
:100B700058F390C11E861D8611C08D859E858C5BA5
:100B80009E4FFC0120818D859E858A509E4FFC01E1
:100B900020838D859E8501969E878D878D859E8578
:100BA000089758F377C1188A1F8611C08F859889D6
:100BB000845B9E4FFC0120818F8598898A509E4FCF
:100BC000FC0120838F8598890196988B8F878F856C
:100BD0009889089758F35EC11A8A198A11C08989C1
:100BE0009A898C5A9E4FFC01208189899A898A5062
:100BF0009E4FFC01208389899A8901969A8B898B63
:100C000089899A89089758F345C11C8A1B8A11C0A3
:100C10008B899C89845A9E4FFC0120818B899C89F9
:100C20008A509E4FFC0120838B899C8901969C8B66
:100C30008B8B8B899C89089758F32CC11E8A1D8A3F
:100C400011C08D899E898C599E4FFC0120818D8910
:100C50009E898A509E4FFC0120838D899E89019632
:100C60009E8B8D8B8D899E89089758F313C1188EA2
:100C70001F8A11C08F89988D84599E4FFC01208155
:100C80008F89988D8A509E4FFC0120838F89988D83
:100C90000196988F8F8B8F89988D089758F3FAC09B
:100CA0001A8E198E11C0898D9A8D8C589E4FFC0119
:100CB0002081898D9A8D8A509E4FFC012083898DD9
:100CC0009A8D01969A8F898F898D9A8D089758F3FE
:100CD000E1C01C8E1B8E11C08B8D9C8D84589E4F45
:100CE000FC0120818B8D9C8D8A509E4FFC012083BE
:100CF0008B8D9C8D01969C8F8B8F8B8D9C8D0897F7
:100D000058F3C8C01E8E1D8E11C08D8D9E8D8C57C0
:100D10009E4FFC0120818D8D9E8D8A509E4FFC013F
:100D200020838D8D9E8D01969E8F8D8F8D8D9E8DB6
:100D3000089758F3AFC018A21F8E11C08F8D98A1CD
:100D400084579E4FFC0120818F8D98A18A509E4F21
:100D5000FC0120838F8D98A1019698A38F8F8F8D92
:100D600098A1089758F396C01AA219A211C089A198
:100D70009AA18F519E4FFC01208189A19AA18A508E
:100D80009E4FFC01208389A19AA101969AA389A371
:100D900089A19AA1089758F37DC01CA21BA211C07B
:100DA0008BA19CA18C569E4FFC0120818BA19CA104
:100DB0008A509E4FFC0120838BA19CA101969CA38D
:100DC0008BA38BA19CA1089758F364C01EA21DA2FF
:100DD00011C08DA19EA184569E4FFC0120818DA142
:100DE0009EA18A509E4FFC0120838DA19EA1019659
:100DF0009EA38DA38DA19EA1089758F34BC018A662
:100E00001FA211C08FA198A58C559E4FFC01208177
:100E10008FA198A58A509E4FFC0120838FA198A591
:100E2000019698A78FA38FA198A5089758F332C071
:100E30001AA619A611C089A59AA584559E4FFC0132
:100E4000208189A59AA58A509E4FFC01208389A5FF
:100E50009AA501969AA789A789A59AA5089758F3F4
:100E600019C01CA61BA611C08BA59CA58F519E4F17
:100E7000FC0120818BA59CA58A509E4FFC012083FC
:100E80008BA59CA501969CA78BA78BA59CA50897D5
:100E900058F300008DA59EA5892B19F01EA61DA64E
:100EA00001C000008DA59EA5892B09F02BC0809163
:100EB0000202883031F41092020281E08093BE0178
:100EC00020C08091020291E0980F90930202882F37
:100ED00090E08A509E4FFC0180818093030288E25B
:100EE00090E0209103022095FC0120838BE290E0AA
:100EF0002091BE01FC0120838091BE01880F809368
:100F0000BE0100008DA59EA5AE960FB6F894DEBF7B
:100F10000FBECDBFDF91CF910895CF93DF9300D067
:100F2000CDB7DEB79A83898389819A818130910513
:100F3000A9F082309105B9F0892B29F58091E9015A
:100F40009091EA01892B29F081E090E09A838983CE
:100F50001CC082E090E09A83898317C082E090E011
:100F60009A83898312C08091E9019091EA01892BCB
:100F700029F081E090E09A83898307C082E090E0C5
:100F80009A83898302C01A82198289819A81813069
:100F9000910549F08230910551F0892B09F00AC082
:100FA0001092F30107C080E28093F30103C0109216
:100FB000F301000085E290E025E230E0F9012081B4
:100FC0002F7D3091F301232B3091F501232BFC0170
:100FD000208389819A810F900F90DF91CF9108959E
:100FE000CF93DF9300D0CDB7DEB79A838983898111
:100FF0009A81892B19F41A82198202C01A821982E5
:1010000089819A81892B09F037C08091EB019091F9
:10101000EC0182309105C1F0833091052CF40097EA
:1010200061F0019769F020C084309105A9F0843007
:10103000910574F00597A1F017C01092F4011BC040
:1010400081E08093F40117C083E08093F40113C022
:1010500087E08093F4010FC08FE08093F4010BC010
:101060008FE18093F40107C01092F4011092EC011B
:101070001092EB010000000085E290E025E230E0F4
:10108000F9012081207E3091F401232B3091F5016C
:10109000232BFC01208389819A810F900F90DF918F
:1010A000CF910895CF93DF9300D01F92CDB7DEB7D5
:1010B0009B838A8383E290E0FC0180818095807825
:1010C00089838A819B81009719F0019761F016C08E
:1010D0008981882329F081E090E09B838A8313C073
:1010E0001B821A8210C08981882329F081E090E058
:1010F0009B838A8308C01B821A8205C081E090E02E
:101100009B838A8300008A819B81009719F0019755
:1011100031F00CC01092F0011092EF0107C081E095
:1011200090E09093F0018093EF0100008A819B8111
:101130000F900F900F90DF91CF910895CF93DF9391
:10114000CDB7DEB729970FB6F894DEBF0FBECDBF7F
:101150009987888785E0E7ECF1E0DE01139601903E
:101160000D928A95E1F786E090E09A8389838885DD
:101170009985009719F0019779F01CC08091ED01D5
:101180009091EE01892B19F01986188618C081E01C
:1011900090E09987888713C08091ED019091EE01CE
:1011A000892B19F0198618860AC081E090E099878A
:1011B000888705C081E090E099878887000088854E
:1011C0009985009719F00197B1F14AC08091040206
:1011D000909105029C012F5F3F4F309305022093B1
:1011E00004029E012D5F3F4F820F931FFC018081FF
:1011F0008093F50180910402909105029C01898100
:101200009A812817390720F01092050210920402E3
:1012100085E290E025E230E0F9012081207C3091E8
:10122000F301232B3091F401232B3091F501232B73
:10123000FC01208315C01092F50185E290E025E2C3
:1012400030E0F9012081207C3091F301232B309193
:10125000F401232B3091F501232BFC0120830000A6
:101260008885998529960FB6F894DEBF0FBECDBF4D
:10127000DF91CF910895CF93DF9300D0CDB7DEB744
:101280009A83898389819A81009719F00197A9F03F
:1012900022C08091EF019091F001892B59F080914B
:1012A000BF019091C001892B29F081E090E09A83E1
:1012B000898314C01A82198211C08091BF01909154
:1012C000C001892B29F081E090E09A83898306C0D0
:1012D0001A82198203C01A821982000089819A81B8
:1012E000009719F0019799F022C08091EF01909139
:1012F000F001892B31F48AE090E09093C001809353
:10130000BF0160E070E0CB010E94640310C064EA9A
:1013100070ED82E893E40E9464038091BF01909194
:10132000C00101979093C0018093BF0100008981A3
:101330009A810F900F90DF91CF910895CF93DF9313
:1013400000D0CDB7DEB79A83898389819A81092E2F
:10135000000CAA0BBB0B40E050E029E030E0841BFE
:10136000950B2817390708F416C180569F4FFC01CA
:101370000C941A0E8091EF019091F001892B29F0C5
:1013800081E090E09A83898309C11A82198206C19B
:101390008091EF019091F001892B31F48091C1018E
:1013A0009091C201892B29F081E090E09A83898392
:1013B000F5C082E090E09A838983F0C08091EF01CC
:1013C0009091F001892B29F089E090E09A8389833C
:1013D000E5C083E090E09A838983E0C08091EF01CB
:1013E0009091F001892B29F089E090E09A8389831C
:1013F000D5C08091060290910702059728F482E0FB
:1014000090E09A838983CAC0109207021092060264
:1014100084E090E09A838983C1C08091EF0190912C
:10142000F001892B29F089E090E09A838983B6C086
:101430008091120190911301409769F080911201FF
:1014400090911301909309028093080285E090E047
:101450009A838983A3C084E090E09A8389839EC0A5
:101460008091EF019091F001892B29F089E090E0C3
:101470009A83898393C080911201909113014097C0
:1014800029F085E090E09A83898388C080911201D9
:1014900090911301409701F5809106029091070207
:1014A000880F991F8C549E4FFC01208131818091BF
:1014B0000802909109022817390771F48091EB0115
:1014C0009091EC0101969093EC018093EB0186E002
:1014D00090E09A83898362C087E090E09A83898351
:1014E0005DC08091EF019091F001892B29F089E096
:1014F00090E09A83898352C08091060290910702FE
:10150000049770F4809106029091070201969093DF
:1015100007028093060284E090E09A8389833EC0AC
:101520001092F2011092F10188E090E09A83898391
:1015300035C08091EF019091F001892B29F089E06D
:1015400090E09A8389832AC01092F2011092F101EF
:1015500087E090E09A83898321C08091EF01909188
:10156000F001892B29F089E090E09A83898316C0E5
:1015700088E090E09A83898311C08091EF01909177
:10158000F001892B29F089E090E09A83898306C0D5
:101590001A82198203C01A821982000089819A81F5
:1015A000092E000CAA0BBB0B40E050E029E030E014
:1015B000841B950B2817390708F4ACC086559F4F3C
:1015C000FC010C941A0E83E090E09093C20180938A
:1015D000C10181E190E0909313018093120181E0B9
:1015E00090E09093EE018093ED011092F201109241
:1015F000F1011092EC011092EB011092EA011092AD
:10160000E9018BC010920702109206028091C1017D
:101610009091C20101979093C2018093C10182E130
:1016200090E090931301809312011092EE011092BA
:10163000ED011092F2011092F1011092EC01109262
:10164000EB011092EA011092E90167C00E940210BA
:101650008F709078992324F40197806F9F6F019683
:1016600090931301809312018091060290910702DA
:101670002091120130911301880F991F8C549E4FB5
:10168000FC013183208381E090E09093EA01809314
:10169000E90180910602909107020196909307025A
:1016A000809306023AC080E190E09093130180930A
:1016B000120133C081E090E09093F2018093F10138
:1016C0001092EA011092E90128C01092F2011092E2
:1016D000F10184E190E0909313018093120181E085
:1016E00090E09093EA018093E90117C01092F20113
:1016F0001092F10183E190E0909313018093120125
:101700000CC01092F2011092F1011092EA011092B5
:10171000E90103C0000001C0000089819A810F9097
:101720000F90DF91CF9108950F931F93CF93DF9385
:10173000CDB7DEB769970FB6F894DEBF0FBECDBF49
:1017400081E290E020EFFC01208382E290E02FE034
:10175000FC01208384E290E02FE7FC01208385E2F6
:1017600090E020E8FC01208387E290E02FEFFC016D
:10177000208388E290E0FC0110828AE290E02FEF63
:10178000FC0120838BE290E0FC01108280E1ECEC14
:10179000F1E0DE011A9601900D928A95E1F788E05A
:1017A00090E098878F838FEF8987898580930A02DD
:1017B00084E190E0A0E0B0E080930B0290930C02F3
:1017C000A0930D02B0930E0280910B0290910C0237
:1017D000A0910D02B0910E0280930F02909310021F
:1017E000A0931102B09312028BE294E09093140242
:1017F0008093130289858093150281E090E0A0E038
:10180000B0E08093160290931702A0931802B09351
:1018100019028091160290911702A0911802B091BE
:10182000190280931A0290931B02A0931C02B0939A
:101830001D0282E095E090931F0280931E0289852D
:10184000809320028AEF90E0A0E0B0E08093210234
:1018500090932202A0932302B0932402809121024C
:1018600090912202A0912302B0912402809325023C
:1018700090932602A0932702B09328028DE897E068
:1018800090932A0280932902898580932B0282E318
:1018900090E0A0E0B0E080932C0290932D02A09302
:1018A0002E02B0932F0280912C0290912D02A091D4
:1018B0002E02B0912F028093300290933102A093B8
:1018C0003202B093330280EF97E090933502809319
:1018D000340289858093360284E190E0A0E0B0E094
:1018E0008093370290933802A0933902B0933A0262
:1018F0008091370290913802A0913902B0913A025A
:1019000080933B0290933C02A0933D02B0933E0231
:1019100082E598E09093400280933F02898580930E
:10192000410284EF91E0A0E0B0E080934202909306
:101930004302A0934402B0934502809142029091E9
:101940004302A0914402B0914502809346029093D5
:101950004702A0934802B09349028EE998E0909321
:101960004B0280934A02898580934C0284E690E082
:10197000A0E0B0E080934D0290934E02A0934F02FE
:10198000B093500280914D0290914E02A0914F026F
:10199000B09150028093510290935202A09353024F
:1019A000B09354028BE399E09093560280935502D2
:1019B00089858093570284EF91E0A0E0B0E08093A6
:1019C000580290935902A0935A02B0935B028091FF
:1019D000580290915902A0915A02B0915B028093F3
:1019E0005C0290935D02A0935E02B0935F028EE969
:1019F00099E090936102809360028A859B85FC0147
:101A000081819281A381B4818B839C83AD83BE83CA
:101A100081E090E09A83898325C089819A81880F2B
:101A2000991F9E012F5F3F4F820F931F0996FC0164
:101A300080819181FC0121813281438154818B819C
:101A40009C81AD81BE81BC01CD010E943902DC01C7
:101A5000CB018B839C83AD83BE8389819A81019660
:101A60009A83898329813A818F819885281739073C
:101A7000A0F28B819C81AD81BE81BC01CD010E9411
:101A800036030E9486020E9404041A821982A0C0B2
:101A900089819A81880F991F9E012F5F3F4F820F86
:101AA000931F0996FC0180819181FC01258136817B
:101AB0004781508589819A81880F991FBE016F5F88
:101AC0007F4F860F971F0996FC0180819181FC0151
:101AD00081819281A381B481281739074A075B0766
:101AE00008F445C089819A81880F991F9E012F5F54
:101AF0003F4F820F931F0996FC010081118189815C
:101B00009A81880F991F9E012F5F3F4F820F931F6D
:101B10000996FC0180819181FC01218532858981B2
:101B20009A81880F991FAE014F5F5F4F840F951FF9
:101B30000996FC0180819181FC018081082E000CB6
:101B4000990BF9010995F801808389819A81880FA1
:101B5000991F9E012F5F3F4F820F931F0996FC0133
:101B600080819181FC0115821682178210868981FD
:101B70009A81880F991F9E012F5F3F4F820F931FFD
:101B80000996FC016081718189819A81880F991F72
:101B90009E012F5F3F4F820F931F0996FC018081AA
:101BA0009181FC0125813681478150858B819C8103
:101BB000AD81BE81820F931FA41FB51FFB018583DA
:101BC0009683A783B08789819A8101969A838983B6
:101BD00029813A818F8198852817390708F458CFD1
:101BE00000008091DC018823E1F31092DC014DCFED
:101BF000A1E21A2EAA1BBB1BFD010DC0AA1FBB1F11
:101C0000EE1FFF1FA217B307E407F50720F0A21B82
:101C1000B30BE40BF50B661F771F881F991F1A94EF
:101C200069F760957095809590959B01AC01BD0119
:101C3000CF010895EE0FFF1F0024001C0BBE07907C
:101C4000F691E02D09940E94D00E08F481E00895E9
:101C50000E943C0E0C940B0F0E94040F58F00E943F
:101C6000FD0E40F029F45F3F29F00C94F40E511161
:101C70000C943F0F0C94FA0E0E941C0F68F39923EA
:101C8000B1F3552391F3951B550BBB27AA27621778
:101C90007307840738F09F5F5F4F220F331F441F85
:101CA000AA1FA9F335D00E2E3AF0E0E832D09150B9
:101CB0005040E695001CCAF72BD0FE2F29D0660FA6
:101CC000771F881FBB1F261737074807AB07B0E8E9
:101CD00009F0BB0B802DBF01FF2793585F4F3AF0EF
:101CE0009E3F510578F00C94F40E0C943F0F5F3F2B
:101CF000E4F3983ED4F3869577956795B795F79575
:101D00009F5FC9F7880F911D9695879597F908955C
:101D1000E1E0660F771F881FBB1F621773078407F8
:101D2000BA0720F0621B730B840BBA0BEE1F88F707
:101D3000E09508950E94A10E6894B1110C943F0F94
:101D400008950E94240F88F09F5798F0B92F992783
:101D5000B751B0F0E1F0660F771F881F991F1AF096
:101D6000BA95C9F714C0B13091F00E943E0FB1E0AE
:101D700008950C943E0F672F782F8827B85F39F0AD
:101D8000B93FCCF3869577956795B395D9F73EF42F
:101D900090958095709561957F4F8F4F9F4F0895D7
:101DA000990F0008550FAA0BE0E8FEEF161617066C
:101DB000E807F907C0F012161306E407F50798F0D4
:101DC000621B730B840B950B39F40A2661F0232BED
:101DD000242B252B21F408950A2609F4A140A69569
:101DE0008FEF811D811D089597F99F6780E870E04E
:101DF00060E008959FEF80EC089500240A94161681
:101E0000170618060906089500240A9412161306E8
:101E1000140605060895092E0394000C11F4882376
:101E200052F0BB0F40F4BF2B11F460FF04C06F5F92
:101E30007F4F8F4F9F4F089557FD9058440F551F68
:101E400059F05F3F71F04795880F97FB991F61F03C
:101E50009F3F79F087950895121613061406551FB3
:101E6000F2CF4695F1DF08C0161617061806991F1F
:101E7000F1CF86957105610508940895E894BB2714
:101E800066277727CB0197F908950E94D00E08F4B2
:101E90008FEF08950E945D0F0C940B0F0E94FD0EB2
:101EA00038F00E94040F20F0952311F00C94F40EEA
:101EB0000C94FA0E11240C943F0F0E941C0F70F327
:101EC000959FC1F3950F50E0551F629FF001729FDF
:101ED000BB27F00DB11D639FAA27F00DB11DAA1FEE
:101EE000649F6627B00DA11D661F829F2227B00D3B
:101EF000A11D621F739FB00DA11D621F839FA00DC6
:101F0000611D221F749F3327A00D611D231F849F15
:101F1000600D211D822F762F6A2F11249F5750406C
:101F20009AF0F1F088234AF0EE0FFF1FBB1F661FE7
:101F3000771F881F91505040A9F79E3F510580F0B0
:101F40000C94F40E0C943F0F5F3FE4F3983ED4F3EF
:101F5000869577956795B795F795E7959F5FC1F754
:101F6000FE2B880F911D9695879597F908958F926E
:101F70009F92AF92BF92CF92DF92EF92FF92CF9358
:101F8000DF93EC01688179818A819B8161157105FC
:101F90008105910521F464E279ED8BE597E02DE16F
:101FA00033EF41E050E00E94111049015A019B01BA
:101FB000AC01A7EAB1E40E9430106B017C01ACEEE9
:101FC000B4EFA50194010E943E10DC01CB018C0D01
:101FD0009D1DAE1DBF1DB7FF03C00197A109B048ED
:101FE00088839983AA83BB839F77DF91CF91FF90EA
:101FF000EF90DF90CF90BF90AF909F908F9008951B
:102000000C94B70F83EC91E00C94B70FA0E0B0E014
:102010008093C3019093C401A093C501B093C601FE
:102020000895052E97FB1EF400940E94281057FD7A
:1020300007D00E94F80D07FC03D04EF40C94281032
:1020400050954095309521953F4F4F4F5F4F0895E4
:1020500090958095709561957F4F8F4F9F4F089514
:102060000E944310A59F900DB49F900DA49F800DDA
:10207000911D11240895B7FF0C9430100E94301068
:10208000821B930B0895A29FB001B39FC001A39F31
:10209000700D811D1124911DB29F700D811D1124A1
:0820A000911D0895F894FFCF93
:1020A8000000000200000000D50000000000010050
:1020B800000010003C42464A5262423C0818280878
:1020C8000808083C384444047C40407C3C04040430
:1020D8003C04043C444444447E0404047C404040A2
:1020E8007C04047C7C4440407C44447C3C44440460
:1020F800040404047C4444447C44447C7C44447C80
:102108000404447C102844447C4444447C42427C7B
:102118004442427C3844404040404438784442423B
:102128004242447800925438FE3854922424FF24C2
:1021380024FF2424E8A8EE8025557252FFFFFFFFF4
:10214800FFFFFFFF0024242400423C000024242435
:10215800003C420010001000100010001000010A9E
:102168000003000100000021120C12210A021502CE
:0C21780020022B02360241024C025702EA
:00000001FF
