:100000000C9446000C9465000C9465000C946500FB
:100010000C9465000C9465000C9465000C946500CC
:100020000C9465000C9465000C9465000C946500BC
:100030000C9465000C9466020C9465000C946500A9
:100040000C9465000C9465000C9465000C9465009C
:100050000C9465000C9465000C9465000C9465008C
:100060000C9465000C9465000C9465000C9465007C
:100070000C9465000C9465000C9465000C9465006C
:100080000C9465000C9465000C94650011241FBE4F
:10009000CFEFD0E4DEBFCDBF11E0A0E0B1E0E2E3FE
:1000A000FAE000E00BBF02C007900D92A431B10747
:1000B000D9F721E0A4E1B1E001C01D92AF32B2074F
:1000C000E1F70E9472030C9417050C940000CF9383
:1000D000DF9300D01F92CDB7DEB789837B836A831D
:1000E00089818A3031F48A819B81BC018DE00E9434
:1000F000670080EC90E0FC018081882F90E08072A6
:100100009927892BB1F386EC90E02981FC012083AB
:1001100080E090E00F900F900F90DF91CF910895C5
:10012000CF93DF9300D01F92CDB7DEB789836A8368
:100130004B838B81882371F08A81282F30E081E006
:1001400090E002C0880F991F2A95E2F7982F8981C5
:10015000892B0EC08A81282F30E081E090E002C018
:10016000880F991F2A95E2F7982F90958981892306
:100170000F900F900F90DF91CF910895CF93DF9361
:1001800000D0CDB7DEB789836A838A81282F30E01B
:1001900081E090E002C0880F991F2A95E2F7982F1E
:1001A000898189230F900F90DF91CF9108950F934C
:1001B0001F93CF93DF93CDB7DEB702E210E040E0AC
:1001C00064E08FEF0E949000F8018083000080E2DD
:1001D00090E0FC018081809560E00E94BE00882351
:1001E00011F081E3D3C080E290E0FC018081809532
:1001F00061E00E94BE00882311F084E3C7C080E262
:1002000090E0FC018081809562E00E94BE0088231E
:1002100011F087E3BBC080E290E0FC018081809513
:1002200063E00E94BE00882311F08AE2AFC002E2C0
:1002300010E040E065E08FEF0E949000F8018083BD
:10024000000080E290E0FC018081809560E00E94E7
:10025000BE00882311F082E399C080E290E0FC01A7
:100260008081809561E00E94BE00882311F085E3C3
:100270008DC080E290E0FC018081809562E00E9468
:10028000BE00882311F088E381C080E290E0FC0189
:100290008081809563E00E94BE00882311F080E396
:1002A00075C002E210E040E066E08FEF0E9490002F
:1002B000F8018083000080E290E0FC01808180955D
:1002C00060E00E94BE00882311F083E35FC080E2FB
:1002D00090E0FC018081809561E00E94BE0088234F
:1002E00011F086E353C080E290E0FC0180818095AC
:1002F00062E00E94BE00882311F089E347C080E2DB
:1003000090E0FC018081809563E00E94BE0088231C
:1003100011F083E23BC002E210E040E067E08FEFC3
:100320000E949000F8018083000080E290E0FC01D0
:100330008081809560E00E94BE00882311F081E4F6
:1003400025C080E290E0FC018081809561E00E9400
:10035000BE00882311F082E419C080E290E0FC0125
:100360008081809562E00E94BE00882311F083E4C2
:100370000DC080E290E0FC018081809563E00E94E6
:10038000BE00882311F084E401C080E0DF91CF91AA
:100390001F910F910895CF93DF93CDB7DEB72C97C0
:1003A0000FB6F894DEBF0FBECDBF6D837E838F8303
:1003B000988729873A874B875C878D819E81AF819B
:1003C000B88529853A854B855C85BC01CD010E94A5
:1003D000F504DC01CB0189839A83AB83BC838981DB
:1003E0009A81AB81BC81892B8A2B8B2B29F489853F
:1003F0009A85AB85BC8511C089859A85AB85BC85FE
:100400008D839E83AF83B88789819A81AB81BC81BC
:1004100089879A87AB87BC87D0CFBC01CD012C964A
:100420000FB6F894DEBF0FBECDBFDF91CF91089518
:10043000CF93DF93CDB7DEB781E890E02BE0FC01EE
:10044000208388E890E02DE730E0FC0131832083B1
:100450008FE690E022E0FC01208384E890E0FC013C
:100460001182108280910E0190910F01A0911001D4
:10047000B09111018093150190931601A09317017B
:10048000B09318018FE590E02FE530E0F90120816D
:100490002068FC0120830000DF91CF910895CF9365
:1004A000DF93CDB7DEB781E890E0FC011082000059
:1004B000DF91CF910895CF93DF93CDB7DEB781E081
:1004C000809314010000DF91CF9108951F920F9245
:1004D00000905F000F92112400905B000F922F9309
:1004E0003F934F935F936F937F938F939F93AF93BC
:1004F000BF93EF93FF93CF93DF93CDB7DEB7809198
:10050000150190911601A0911701B0911801019762
:10051000A109B1098093150190931601A0931701C9
:10052000B09318018091150190911601A0911701C7
:10053000B0911801892B8A2B8B2B91F40E945B02BE
:1005400080910E0190910F01A0911001B0911101C5
:100550008093150190931601A0931701B093180191
:100560000000DF91CF91FF91EF91BF91AF919F91EB
:100570008F917F916F915F914F913F912F910F904C
:1005800000925B000F9000925F000F901F901895F3
:10059000CF93DF9300D000D0CDB7DEB769837A83E5
:1005A0008B839C8389819A81AB81BC8180930E016E
:1005B00090930F01A0931001B093110180910E014F
:1005C00090910F01A0911001B0911101809315013C
:1005D00090931601A0931701B093180100000F909B
:1005E0000F900F900F90DF91CF910895CF93DF93ED
:1005F00000D0CDB7DEB79A83898389819A81892B10
:1006000019F01A82198201C0000089819A81892B10
:1006100009F026C0809112018F3759F4809113019F
:10062000813039F480E8809313018EEF80931201BA
:1006300016C080911301813069F480E88093130122
:1006400080911201882F90E0880F991F816080931C
:10065000120105C08091130186958093130100005B
:1006600088E290E0209113012095FC0120838BE229
:1006700090E0209112012095FC01208389819A81CC
:100680000F900F90DF91CF910895CF93DF9300D01B
:100690001F92CDB7DEB79B838A838A819B81892B8A
:1006A00019F41B821A8203C01B821A8200008A81FD
:1006B0009B81892B09F00EC00E94D700898385E2B7
:1006C00090E02981222311F421E001C022E0FC0105
:1006D000208300008A819B810F900F900F90DF9103
:1006E000CF9108950F931F93CF93DF93CDB7DEB7CC
:1006F0002D970FB6F894DEBF0FBECDBF81E290E01C
:1007000020EFFC01208382E290E02FE0FC012083B7
:1007100084E290E02FE3FC01208385E290E020EC6E
:10072000FC01208387E290E02FEFFC01208388E228
:1007300090E0FC0110828AE290E02FEFFC01208320
:100740008BE290E0FC01108289E191E09B878A872F
:1007500084E291E09D878C8782E090E098878F8388
:100760008FEF898789858093190184E690E0A0E066
:10077000B0E080931A0190931B01A0931C01B093E9
:100780001D0180911A0190911B01A0911C01B09153
:100790001D0180931E0190931F01A0932001B0932F
:1007A000210186EF92E090932301809322018985B5
:1007B000809324018AE090E0A0E0B0E080932501DE
:1007C00090932601A0932701B093280180912501E1
:1007D00090912601A0912701B091280180932901D1
:1007E00090932A01A0932B01B0932C0185E493E010
:1007F00090932E0180932D018A859B85FC01818138
:100800009281A381B4818B839C83AD83BE8381E07D
:1008100090E09A83898325C089819A81880F991FE6
:100820009E012F5F3F4F820F931F0996FC0180812D
:100830009181FC0121813281438154818B819C8192
:10084000AD81BE81BC01CD010E94CB01DC01CB0199
:100850008B839C83AD83BE8389819A8101969A8321
:10086000898329813A818F81988528173907A0F2D9
:100870008B819C81AD81BE81BC01CD010E94C802EB
:100880000E9418021A821982A0C089819A81880F59
:10089000991F9E012F5F3F4F820F931F0996FC0106
:1008A00080819181FC012581368147815085898134
:1008B0009A81880F991FBE016F5F7F4F860F971F28
:1008C0000996FC0180819181FC0181819281A38143
:1008D000B481281739074A075B0709F045C08981A9
:1008E0009A81880F991F9E012F5F3F4F820F931FA0
:1008F0000996FC010081118189819A81880F991FD5
:100900009E012F5F3F4F820F931F0996FC0180814C
:100910009181FC012185328589819A81880F991FF7
:10092000AE014F5F5F4F840F951F0996FC018081D8
:100930009181FC018081082E000C990BF901099529
:10094000F801808389819A81880F991F9E012F5F0A
:100950003F4F820F931F0996FC0180819181FC011A
:10096000158216821782108689819A81880F991FB5
:100970009E012F5F3F4F820F931F0996FC016081FC
:10098000718189819A81880F991F9E012F5F3F4F46
:10099000820F931F0996FC0180819181FC012581C2
:1009A0003681478150858B819C81AD81BE81820FCC
:1009B000931FA41FB51FFB0185839683A783B08770
:1009C00089819A8101969A83898329813A818F81CD
:1009D00098852817390708F458CF00008091140132
:1009E0008823E1F3109214014DCFA1E21A2EAA1B25
:1009F000BB1BFD010DC0AA1FBB1FEE1FFF1FA217CF
:100A0000B307E407F50720F0A21BB30BE40BF50BCB
:100A1000661F771F881F991F1A9469F76095709554
:100A2000809590959B01AC01BD01CF010895F8948C
:020A3000FFCFF6
:100A3200000000020000000067000000000001004A
:040A42000000FE8032
:00000001FF
