:100000000C949E000C94BD000C94BD000C94BD009B
:100010000C94BD000C94BD000C94BD000C94BD006C
:100020000C94BD000C94BD000C94BD000C94BD005C
:100030000C94BD000C94BE020C94BD000C94BD0049
:100040000C94BD000C94BD000C94BD000C94BD003C
:100050000C94BD000C94BD000C94BD000C94BD002C
:100060000C94BD000C94BD000C94BD000C94BD001C
:100070000C94BD000C94BD000C94BD000C94BD000C
:100080000C94BD000C94BD000C94BD007E03F303E2
:10009000F303F303F303F303F303F303F303F303B0
:1000A000F303F303F303F303F303F303F303F303A0
:1000B000F303F303F303F303F303F303F303F30390
:1000C000F303F303F303F303F303F303F303F30380
:1000D000F303EC03F303F303F303F303F303F30377
:1000E000E503F303F303F303F303F30385038A0345
:1000F000910398039F03A603AD03B403BB03C2039C
:10010000F303F303F303F303F303F303F303C90369
:10011000D003D703DE0325043E045704700489048A
:10012000A204BB04D404ED0406051F0538055105DF
:100130006A0583059C05B505CE05E70511241FBE9C
:10014000CFEFD0E4DEBFCDBF11E0A0E0B1E0E4E24C
:10015000F0E100E00BBF02C007900D92A63AB10794
:10016000D9F721E0A6EAB1E001C01D92A33DB20794
:10017000E1F70E9462060C9410080C940000CF93E3
:10018000DF9300D01F92CDB7DEB789837B836A836C
:1001900089818A3031F48A819B81BC018DE00E9483
:1001A000BF0080EC90E0FC018081882F90E080729D
:1001B0009927892BB1F386EC90E02981FC012083FB
:1001C00080E090E00F900F900F90DF91CF91089515
:1001D000CF93DF9300D01F92CDB7DEB789836A83B8
:1001E0004B838B81882371F08A81282F30E081E056
:1001F00090E002C0880F991F2A95E2F7982F898115
:10020000892B0EC08A81282F30E081E090E002C067
:10021000880F991F2A95E2F7982F90958981892355
:100220000F900F900F90DF91CF910895CF93DF93B0
:1002300000D0CDB7DEB789836A838A81282F30E06A
:1002400081E090E002C0880F991F2A95E2F7982F6D
:10025000898189230F900F90DF91CF9108950F939B
:100260001F93CF93DF93CDB7DEB702E210E040E0FB
:1002700064E08FEF0E94E800F8018083000080E2D4
:1002800090E0FC018081809560E00E941601882347
:1002900011F081E3D3C080E290E0FC018081809581
:1002A00061E00E941601882311F084E3C7C080E258
:1002B00090E0FC018081809562E00E941601882315
:1002C00011F087E3BBC080E290E0FC018081809563
:1002D00063E00E941601882311F08AE2AFC002E2B7
:1002E00010E040E065E08FEF0E94E800F8018083B5
:1002F000000080E290E0FC018081809560E00E9437
:100300001601882311F082E399C080E290E0FC019D
:100310008081809561E00E941601882311F085E3B9
:100320008DC080E290E0FC018081809562E00E94B7
:100330001601882311F088E381C080E290E0FC017F
:100340008081809563E00E941601882311F080E38C
:1003500075C002E210E040E066E08FEF0E94E80026
:10036000F8018083000080E290E0FC0180818095AC
:1003700060E00E941601882311F083E35FC080E2F1
:1003800090E0FC018081809561E00E941601882345
:1003900011F086E353C080E290E0FC0180818095FB
:1003A00062E00E941601882311F089E347C080E2D1
:1003B00090E0FC018081809563E00E941601882313
:1003C00011F083E23BC002E210E040E067E08FEF13
:1003D0000E94E800F8018083000080E290E0FC01C8
:1003E0008081809560E00E941601882311F081E4ED
:1003F00025C080E290E0FC018081809561E00E9450
:100400001601882311F082E419C080E290E0FC011B
:100410008081809562E00E941601882311F083E4B8
:100420000DC080E290E0FC018081809563E00E9435
:100430001601882311F084E401C080E0DF91CF91A0
:100440001F910F910895CF93DF93CDB7DEB72C970F
:100450000FB6F894DEBF0FBECDBF6D837E838F8352
:10046000988729873A874B875C878D819E81AF81EA
:10047000B88529853A854B855C85BC01CD010E94F4
:10048000E507DC01CB0189839A83AB83BC83898137
:100490009A81AB81BC81892B8A2B8B2B29F489858E
:1004A0009A85AB85BC8511C089859A85AB85BC854D
:1004B0008D839E83AF83B88789819A81AB81BC810C
:1004C00089879A87AB87BC87D0CFBC01CD012C969A
:1004D0000FB6F894DEBF0FBECDBFDF91CF91089568
:1004E000CF93DF93CDB7DEB781E890E02BE0FC013E
:1004F000208388E890E02DE730E0FC013183208301
:100500008FE690E022E0FC01208384E890E0FC018B
:100510001182108280910E0190910F01A091100123
:10052000B09111018093A7019093A801A093A90114
:10053000B093AA018FE590E02FE530E0F90120812A
:100540002068FC0120830000DF91CF910895CF93B4
:10055000DF93CDB7DEB781E890E0FC0110820000A8
:10056000DF91CF910895CF93DF93CDB7DEB781E0D0
:100570008093A6010000DF91CF9108951F920F9202
:1005800000905F000F92112400905B000F922F9358
:100590003F934F935F936F937F938F939F93AF930B
:1005A000BF93EF93FF93CF93DF93CDB7DEB78091E7
:1005B000A7019091A801A091A901B091AA0101976A
:1005C000A109B1098093A7019093A801A093A90163
:1005D000B093AA018091A7019091A801A091A901CF
:1005E000B091AA01892B8A2B8B2B91F40E94B30224
:1005F00080910E0190910F01A0911001B091110115
:100600008093A7019093A801A093A901B093AA0198
:100610000000DF91CF91FF91EF91BF91AF919F913A
:100620008F917F916F915F914F913F912F910F909B
:1006300000925B000F9000925F000F901F90189542
:10064000CF93DF9300D000D0CDB7DEB769837A8334
:100650008B839C8389819A81AB81BC8180930E01BD
:1006600090930F01A0931001B093110180910E019E
:1006700090910F01A0911001B09111018093A701F9
:100680009093A801A093A901B093AA0100000F9034
:100690000F900F900F90DF91CF910895CF93DF933C
:1006A00000D01F92CDB7DEB79B838A838A819B815E
:1006B000892B19F41B821A8203C01B821A82000044
:1006C0008A819B81892B09F096C00E942F01898322
:1006D0008981882F90E0092E000CAA0BBB0B40E00B
:1006E00050E024E430E0841B950B2817390708F408
:1006F0007AC08A5B9F4FFC010C94070880E190E070
:10070000909313018093120175C0109213011092FF
:10071000120170C081E090E0909313018093120168
:1007200069C082E090E0909313018093120162C04F
:1007300083E090E090931301809312015BC084E00A
:1007400090E0909313018093120154C085E090E0F3
:1007500090931301809312014DC086E090E0909336
:1007600013018093120146C087E090E0909313013B
:10077000809312013FC088E090E090931301809332
:10078000120138C089E090E0909313018093120128
:1007900031C08AE090E090931301809312012AC047
:1007A0008BE090E0909313018093120123C08CE0C2
:1007B00090E090931301809312011CC08DE090E0B3
:1007C000909313018093120115C08EE090E09093F6
:1007D0001301809312010EC08FE090E090931301FB
:1007E0008093120107C080E190E090931301809301
:1007F0001201000000008A819B810F900F900F90E2
:10080000DF91CF910895CF93DF93CDB7DEB7AA974D
:100810000FB6F894DEBF0FBECDBF9AA789A780910F
:10082000120190911301CC01A0E0B0E040E050E053
:1008300022E130E0841B950B2817390708F4E0C14A
:1008400085579F4FFC010C9407081A82198211C02A
:1008500089819A818C5E9E4FFC01208189819A81D9
:100860008D549E4FFC01208389819A8101969A8341
:10087000898389819A81089758F3DBC11C821B8286
:1008800011C08B819C81845E9E4FFC0120818B81F5
:100890009C818D549E4FFC0120838B819C8101960D
:1008A0009C838B838B819C81089758F3C2C11E82E5
:1008B0001D8211C08D819E818C5D9E4FFC01208127
:1008C0008D819E818D549E4FFC0120838D819E8160
:1008D00001969E838D838D819E81089758F3A9C1CF
:1008E00018861F8211C08F819885845D9E4FFC0100
:1008F00020818F8198858D549E4FFC0120838F81AC
:100900009885019698878F838F819885089758F3EB
:1009100090C11A86198611C089859A858C5C9E4F74
:10092000FC01208189859A858D549E4FFC0120838E
:1009300089859A8501969A87898789859A850897F6
:1009400058F377C11C861B8611C08B859C85845CFF
:100950009E4FFC0120818B859C858D549E4FFC0110
:1009600020838B859C8501969C878B878B859C85B6
:10097000089758F35EC11E861D8611C08D859E8521
:100980008C5B9E4FFC0120818D859E858D549E4FF2
:10099000FC0120838D859E8501969E878D878D85A0
:1009A0009E85089758F345C1188A1F8611C08F8508
:1009B0009889845B9E4FFC0120818F8598898D5496
:1009C0009E4FFC0120838F8598890196988B8F8795
:1009D0008F859889089758F32CC11A8A198A11C0F3
:1009E00089899A898C5A9E4FFC01208189899A892C
:1009F0008D549E4FFC01208389899A8901969A8B98
:100A0000898B89899A89089758F313C11C8A1B8A94
:100A100011C08B899C89845A9E4FFC0120818B894F
:100A20009C898D549E4FFC0120838B899C89019663
:100A30009C8B8B8B8B899C89089758F3FAC01E8AF4
:100A40001D8A11C08D899E898C599E4FFC01208181
:100A50008D899E898D549E4FFC0120838D899E89AE
:100A600001969E8B8D8B8D899E89089758F3E1C0E6
:100A7000188E1F8A11C08F89988D84599E4FFC0152
:100A800020818F89988D8D549E4FFC0120838F8902
:100A9000988D0196988F8F8B8F89988D089758F332
:100AA000C8C01A8E198E11C0898D9A8D8C589E4F90
:100AB000FC012081898D9A8D8D549E4FFC012083ED
:100AC000898D9A8D01969A8F898F898D9A8D089735
:100AD00058F3AFC01C8E1B8E11C08B8D9C8D84581B
:100AE0009E4FFC0120818B8D9C8D8D549E4FFC016F
:100AF00020838B8D9C8D01969C8F8B8F8B8D9C8DF5
:100B0000089758F396C01E8E1D8E11C08D8D9E8D38
:100B10008C579E4FFC0120818D8D9E8D8D549E4F54
:100B2000FC0120838D8D9E8D01969E8F8D8F8D8DE6
:100B30009E8D089758F37DC018A21F8E11C08F8D0F
:100B400098A184579E4FFC0120818F8D98A18D54D0
:100B50009E4FFC0120838F8D98A1019698A38F8FC3
:100B60008F8D98A1089758F364C01AA219A211C0DA
:100B700089A19AA185559E4FFC01208189A19AA146
:100B80008D549E4FFC01208389A19AA101969AA3BE
:100B900089A389A19AA1089758F34BC01CA21BA254
:100BA00011C08BA19CA18C569E4FFC0120818BA172
:100BB0009CA18D549E4FFC0120838BA19CA101968A
:100BC0009CA38BA38BA19CA1089758F332C01EA2B3
:100BD0001DA211C08DA19EA184569E4FFC012081B3
:100BE0008DA19EA18D549E4FFC0120838DA19EA1BD
:100BF00001969EA38DA38DA19EA1089758F319C0BD
:100C000018A61FA211C08FA198A585559E4FFC0163
:100C100020818FA198A58D549E4FFC0120838FA128
:100C200098A5019698A78FA38FA198A5089758F328
:100C3000000089A59AA5892B19F01AA619A601C04A
:100C4000000089A59AA5892B09F01FC08091BB01DE
:100C5000883081F41092BB018091BB01882F90E015
:100C60008D549E4FFC0180818093BC0181E0809374
:100C7000A4010AC08091BB01882F90E08D549E4F43
:100C8000FC0180818093BC01000088E290E020910B
:100C9000BC012095FC0120838BE290E02091A4010F
:100CA000FC0120838091A401880F8093A40189A571
:100CB0009AA5AA960FB6F894DEBF0FBECDBFDF91FE
:100CC000CF9108950F931F93CF93DF93CDB7DEB7E6
:100CD0002D970FB6F894DEBF0FBECDBF81E290E036
:100CE00020EFFC01208382E290E02FE0FC012083D2
:100CF00084E290E02FE3FC01208385E290E020EC89
:100D0000FC01208387E290E02FEFFC01208388E242
:100D100090E0FC0110828AE290E02FEFFC0120833A
:100D20008BE290E0FC0110828DEB91E09B878A873B
:100D300088EC91E09D878C8782E090E098878F8394
:100D40008FEF898789858093BD0184E190E0A0E0E1
:100D5000B0E08093BE019093BF01A093C001B09317
:100D6000C1018091BE019091BF01A091C001B091DD
:100D7000C1018093C2019093C301A093C401B093B9
:100D8000C5018EE493E09093C7018093C6018985E5
:100D90008093C80181E090E0A0E0B0E08093C901B9
:100DA0009093CA01A093CB01B093CC018091C9016B
:100DB0009091CA01A091CB01B091CC018093CD015B
:100DC0009093CE01A093CF01B093D00183E094E043
:100DD0009093D2018093D1018A859B85FC0181810A
:100DE0009281A381B4818B839C83AD83BE8381E098
:100DF00090E09A83898325C089819A81880F991F01
:100E00009E012F5F3F4F820F931F0996FC01808147
:100E10009181FC0121813281438154818B819C81AC
:100E2000AD81BE81BC01CD010E942302DC01CB015A
:100E30008B839C83AD83BE8389819A8101969A833B
:100E4000898329813A818F81988528173907A0F2F3
:100E50008B819C81AD81BE81BC01CD010E942003AC
:100E60000E9470021A821982A0C089819A81880F1B
:100E7000991F9E012F5F3F4F820F931F0996FC0120
:100E800080819181FC01258136814781508589814E
:100E90009A81880F991FBE016F5F7F4F860F971F42
:100EA0000996FC0180819181FC0181819281A3815D
:100EB000B481281739074A075B0709F045C08981C3
:100EC0009A81880F991F9E012F5F3F4F820F931FBA
:100ED0000996FC010081118189819A81880F991FEF
:100EE0009E012F5F3F4F820F931F0996FC01808167
:100EF0009181FC012185328589819A81880F991F12
:100F0000AE014F5F5F4F840F951F0996FC018081F2
:100F10009181FC018081082E000C990BF901099543
:100F2000F801808389819A81880F991F9E012F5F24
:100F30003F4F820F931F0996FC0180819181FC0134
:100F4000158216821782108689819A81880F991FCF
:100F50009E012F5F3F4F820F931F0996FC01608116
:100F6000718189819A81880F991F9E012F5F3F4F60
:100F7000820F931F0996FC0180819181FC012581DC
:100F80003681478150858B819C81AD81BE81820FE6
:100F9000931FA41FB51FFB0185839683A783B0878A
:100FA00089819A8101969A83898329813A818F81E7
:100FB00098852817390708F458CF00008091A601BA
:100FC0008823E1F31092A6014DCFA1E21A2EAA1BAD
:100FD000BB1BFD010DC0AA1FBB1FEE1FFF1FA217E9
:100FE000B307E407F50720F0A21BB30BE40BF50BE6
:100FF000661F771F881F991F1A9469F7609570956F
:10100000809590959B01AC01BD01CF010895EE0F35
:10101000FF1F0024001C0BBE0790F691E02D0994E1
:04102000F894FFCF72
:101024000000000200000000BF00000000000100FA
:10103400000010003C42464A5262423C081828080C
:101044000808083C384444047C40407C3C040404C4
:101054003C04043C444444447E0404047C40404036
:101064007C04047C7C4440407C44447C3C444404F4
:10107400040404047C4444447C44447C7C44447C14
:101084000404447C102844447C4444447C42427C10
:101094004442427C384440404040443878444242D0
:1010A4004242447800925438FE3854922424FF2457
:1010B40024FF2424E8A8EE8025557252FFFFFFFF89
:0610C400FFFFFFFF010029
:00000001FF
