:100000000C94B4000C94D3000C94D3000C94D30043
:100010000C94D3000C94D3000C94D3000C94D30014
:100020000C94D3000C94D3000C94D3000C94D30004
:100030000C94D3000C94D4020C94D3000C94D300F1
:100040000C94D3000C94D3000C94D3000C94D300E4
:100050000C94D3000C94D3000C94D3000C94D300D4
:100060000C94D3000C94D3000C94D3000C94D300C4
:100070000C94D3000C94D3000C94D3000C94D300B4
:100080000C94D3000C94D3000C94D3007C04F104A2
:10009000F104F104F104F104F104F104F104F104B8
:1000A000F104F104F104F104F104F104F104F104A8
:1000B000F104F104F104F104F104F104F104F10498
:1000C000F104F104F104F104F104F104F104F10488
:1000D000F104EA04F104F104F104F104F104F1047F
:1000E000E304F104F104F104F104F104830488044D
:1000F0008F0496049D04A404AB04B204B904C004A4
:10010000F104F104F104F104F104F104F104C70471
:10011000CE04D504DC0424053D0556056F0588058D
:10012000A105BA05D305EC0505061E0637065006DF
:10013000690682069B06B406CD06E606FF0618078A
:10014000C609D409EA09FA09220A3D0A7B0AA30A68
:10015000B70AC70AED0A0C0B300B510B580B900B6A
:10016000900B690B7A0B850B11241FBECFEFD0E4E7
:10017000DEBFCDBF11E0A0E0B1E0E4EBF0E200E0D3
:100180000BBF02C007900D92A23DB107D9F722E044
:10019000A2EDB1E001C01D92AE35B207E1F70E94B9
:1001A0009A0B0C9458100C940000CF93DF9300D05E
:1001B0001F92CDB7DEB789837B836A8389818A30BA
:1001C00031F48A819B81BC018DE00E94D50080ECD6
:1001D00090E0FC018081882F90E080729927892B24
:1001E000B1F386EC90E02981FC01208380E090E06F
:1001F0000F900F900F90DF91CF910895CF93DF93E1
:1002000000D01F92CDB7DEB789836A834B838B8181
:10021000882371F08A81282F30E081E090E002C0CD
:10022000880F991F2A95E2F7982F8981892B0EC094
:100230008A81282F30E081E090E002C0880F991F6A
:100240002A95E2F7982F9095898189230F900F9036
:100250000F90DF91CF910895CF93DF9300D0CDB76A
:10026000DEB789836A838A81282F30E081E090E0BD
:1002700002C0880F991F2A95E2F7982F8981892358
:100280000F900F90DF91CF9108950F931F93CF930D
:10029000DF93CDB7DEB702E210E040E064E08FEF1D
:1002A0000E94FE00F8018083000080E290E0FC01E3
:1002B0008081809560E00E942C01882311F081E309
:1002C000D3C080E290E0FC018081809561E00E94D3
:1002D0002C01882311F084E3C7C080E290E0FC0188
:1002E0008081809562E00E942C01882311F087E3D1
:1002F000BBC080E290E0FC018081809563E00E94B9
:100300002C01882311F08AE2AFC002E210E040E045
:1003100065E08FEF0E94FE00F8018083000080E21C
:1003200090E0FC018081809560E00E942C01882390
:1003300011F082E399C080E290E0FC018081809519
:1003400061E00E942C01882311F085E38DC080E2DA
:1003500090E0FC018081809562E00E942C0188235E
:1003600011F088E381C080E290E0FC0180818095FB
:1003700063E00E942C01882311F080E375C002E243
:1003800010E040E066E08FEF0E94FE00F8018083FD
:10039000000080E290E0FC018081809560E00E9496
:1003A0002C01882311F083E35FC080E290E0FC0120
:1003B0008081809561E00E942C01882311F086E302
:1003C00053C080E290E0FC018081809562E00E9451
:1003D0002C01882311F089E347C080E290E0FC0102
:1003E0008081809563E00E942C01882311F083E2D4
:1003F0003BC002E210E040E067E08FEF0E94FE00A9
:10040000F8018083000080E290E0FC01808180950B
:1004100060E00E942C01882311F081E425C080E275
:1004200090E0FC018081809561E00E942C0188238E
:1004300011F082E419C080E290E0FC018081809597
:1004400062E00E942C01882311F083E40DC080E259
:1004500090E0FC018081809563E00E942C0188235C
:1004600011F084E401C080E0DF91CF911F910F91E2
:100470000895CF93DF93CDB7DEB72C970FB6F894DE
:10048000DEBF0FBECDBF6D837E838F8398872987A4
:100490003A874B875C878D819E81AF81B88529859E
:1004A0003A854B855C85BC01CD010E94FE0DDC01C7
:1004B000CB0189839A83AB83BC8389819A81AB8189
:1004C000BC81892B8A2B8B2B29F489859A85AB8556
:1004D000BC8511C089859A85AB85BC858D839E833B
:1004E000AF83B88789819A81AB81BC8189879A87DC
:1004F000AB87BC87D0CFBC01CD012C960FB6F8944A
:10050000DEBF0FBECDBFDF91CF910895CF93DF93B4
:10051000CDB7DEB781E890E02BE0FC01208388E8CE
:1005200090E02DE730E0FC01318320838FE690E0FE
:1005300022E0FC01208384E890E0FC01118210821B
:1005400080910E0190910F01A0911001B0911101C5
:100550008093D3019093D401A093D501B093D60199
:100560008FE590E02FE530E0F90120812068FC0163
:1005700020830000DF91CF910895CF93DF93CDB713
:10058000DEB781E890E0FC0110820000DF91CF919E
:100590000895CF93DF93CDB7DEB781E08093D2018A
:1005A0000000DF91CF9108951F920F9200905F009D
:1005B0000F92112400905B000F922F933F934F9363
:1005C0005F936F937F938F939F93AF93BF93EF93BB
:1005D000FF93CF93DF93CDB7DEB78091D301909196
:1005E000D401A091D501B091D6010197A109B1091B
:1005F0008093D3019093D401A093D501B093D601F9
:100600008091D3019091D401A091D501B091D601F0
:10061000892B8A2B8B2B91F40E94C90280910E01A9
:1006200090910F01A0911001B09111018093D3011D
:100630009093D401A093D501B093D6010000DF912F
:10064000CF91FF91EF91BF91AF919F918F917F914A
:100650006F915F914F913F912F910F9000925B00AE
:100660000F9000925F000F901F901895CF93DF932B
:1006700000D000D0CDB7DEB769837A838B839C83AB
:1006800089819A81AB81BC8180930E0190930F0187
:10069000A0931001B093110180910E0190910F0170
:1006A000A0911001B09111018093D3019093D401D6
:1006B000A093D501B093D60100000F900F900F903A
:1006C0000F90DF91CF9108950F931F93CF93DF93F6
:1006D00000D000D0CDB7DEB769837A838B839C834B
:1006E0008091FC019091FD01A091FE01B091FF016C
:1006F0009C01AD0169817A818B819C810E94290EC8
:10070000882309F477C020E030E0A90169817A816B
:100710008B819C810E94290E882351F481E990E00D
:1007200021E930E0F90120812870FC01208309C013
:1007300081E990E021E930E0F90120812360FC01AA
:10074000208328E539E344E75FE369817A818B817F
:100750009C810E94290E882344F488E990E02FEFC1
:100760003FEFFC013183208334C020E034E244EFCA
:1007700056E469817A818B819C810E944B0F181607
:1007800034F488E990E0FC011182108222C008E96B
:1007900010E020E030E040E053E469817A818B8111
:1007A0009C810E94500FDC01CB019C01AD0160E0F7
:1007B00074E284EF9AE40E942E0EDC01CB01BC01AE
:1007C000CD010E94A00EDC01CB010197F8019183BD
:1007D000808384E990E0FC011182108289819A81F2
:1007E000AB81BC818093FC019093FD01A093FE013D
:1007F000B093FF0100000F900F900F900F90DF91CA
:10080000CF911F910F910895CF93DF93CDB7DEB7AE
:1008100080E990E020E4FC01208381E990E02BE076
:10082000FC01208360E070E0CB010E9464030000C3
:10083000DF91CF910895CF93DF93CDB7DEB780E9F5
:1008400090E0FC01108281E990E0FC011082000040
:10085000DF91CF910895CF93DF9300D01F92CDB752
:10086000DEB79B838A838A819B81009719F0019769
:1008700079F01CC08091E7019091E801892B19F073
:100880001B821A8218C081E090E09B838A8313C088
:100890008091E7019091E801892B19F01B821A825F
:1008A0000AC081E090E09B838A8305C081E090E0EC
:1008B0009B838A8300008A819B81009721F00197A6
:1008C00009F497C097C00E94450189838981882FC8
:1008D00090E0092E000CAA0BBB0B40E050E024E492
:1008E00030E0841B950B2817390708F47AC08A5B1F
:1008F0009F4FFC010C94200E80E190E09093130137
:100900008093120175C0109213011092120170C0F1
:1009100081E090E0909313018093120169C082E01E
:1009200090E0909313018093120162C083E090E005
:1009300090931301809312015BC084E090E0909348
:1009400013018093120154C085E090E0909313014D
:10095000809312014DC086E090E090931301809344
:10096000120146C087E090E090931301809312013A
:100970003FC088E090E0909313018093120138C04B
:1009800089E090E0909313018093120131C08AE0D6
:1009900090E090931301809312012AC08BE090E0C5
:1009A000909313018093120123C08CE090E0909308
:1009B0001301809312011CC08DE090E0909313010D
:1009C0008093120115C08EE090E090931301809304
:1009D00012010EC08FE090E09093130180931201FA
:1009E00007C080E190E09093130180931201000012
:1009F00001C000008A819B810F900F900F90DF91C2
:100A0000CF910895CF93DF93CDB7DEB7AE970FB6F2
:100A1000F894DEBF0FBECDBF9EA78DA780911201B7
:100A200090911301CC01A0E0B0E040E050E024E15F
:100A300030E0841B950B2817390708F412C285573C
:100A40009F4FFC010C94200E1A82198211C08981DB
:100A50009A818C5E9E4FFC01208189819A8184510C
:100A60009E4FFC01208389819A8101969A83898314
:100A700089819A81089758F30DC21C821B8211C08C
:100A80008B819C81845E9E4FFC0120818B819C81A7
:100A900084519E4FFC0120838B819C8101969C8315
:100AA0008B838B819C81089758F3F4C11E821D8231
:100AB00011C08D819E818C5D9E4FFC0120818D81B6
:100AC0009E8184519E4FFC0120838D819E810196E1
:100AD0009E838D838D819E81089758F3DBC1188694
:100AE0001F8211C08F819885845D9E4FFC012081FB
:100AF0008F81988584519E4FFC0120838F8198853A
:100B0000019698878F838F819885089758F3C2C183
:100B10001A86198611C089859A858C5C9E4FFC01C6
:100B2000208189859A8584519E4FFC012083898587
:100B30009A8501969A87898789859A85089758F3B7
:100B4000A9C11C861B8611C08B859C85845C9E4F29
:100B5000FC0120818B859C8584519E4FFC01208364
:100B60008B859C8501969C878B878B859C850897B8
:100B700058F390C11E861D8611C08D859E858C5BA5
:100B80009E4FFC0120818D859E8584519E4FFC01E6
:100B900020838D859E8501969E878D878D859E8578
:100BA000089758F377C1188A1F8611C08F859889D6
:100BB000845B9E4FFC0120818F85988984519E4FD4
:100BC000FC0120838F8598890196988B8F878F856C
:100BD0009889089758F35EC11A8A198A11C08989C1
:100BE0009A898C5A9E4FFC01208189899A89845167
:100BF0009E4FFC01208389899A8901969A8B898B63
:100C000089899A89089758F345C11C8A1B8A11C0A3
:100C10008B899C89845A9E4FFC0120818B899C89F9
:100C200084519E4FFC0120838B899C8901969C8B6B
:100C30008B8B8B899C89089758F32CC11E8A1D8A3F
:100C400011C08D899E898C599E4FFC0120818D8910
:100C50009E8984519E4FFC0120838D899E89019637
:100C60009E8B8D8B8D899E89089758F313C1188EA2
:100C70001F8A11C08F89988D84599E4FFC01208155
:100C80008F89988D84519E4FFC0120838F89988D88
:100C90000196988F8F8B8F89988D089758F3FAC09B
:100CA0001A8E198E11C0898D9A8D8C589E4FFC0119
:100CB0002081898D9A8D84519E4FFC012083898DDE
:100CC0009A8D01969A8F898F898D9A8D089758F3FE
:100CD000E1C01C8E1B8E11C08B8D9C8D84589E4F45
:100CE000FC0120818B8D9C8D84519E4FFC012083C3
:100CF0008B8D9C8D01969C8F8B8F8B8D9C8D0897F7
:100D000058F3C8C01E8E1D8E11C08D8D9E8D8C57C0
:100D10009E4FFC0120818D8D9E8D84519E4FFC0144
:100D200020838D8D9E8D01969E8F8D8F8D8D9E8DB6
:100D3000089758F3AFC018A21F8E11C08F8D98A1CD
:100D400084579E4FFC0120818F8D98A184519E4F26
:100D5000FC0120838F8D98A1019698A38F8F8F8D92
:100D600098A1089758F396C01AA219A211C089A198
:100D70009AA189529E4FFC01208189A19AA1845198
:100D80009E4FFC01208389A19AA101969AA389A371
:100D900089A19AA1089758F37DC01CA21BA211C07B
:100DA0008BA19CA18C569E4FFC0120818BA19CA104
:100DB00084519E4FFC0120838BA19CA101969CA392
:100DC0008BA38BA19CA1089758F364C01EA21DA2FF
:100DD00011C08DA19EA184569E4FFC0120818DA142
:100DE0009EA184519E4FFC0120838DA19EA101965E
:100DF0009EA38DA38DA19EA1089758F34BC018A662
:100E00001FA211C08FA198A58C559E4FFC01208177
:100E10008FA198A584519E4FFC0120838FA198A596
:100E2000019698A78FA38FA198A5089758F332C071
:100E30001AA619A611C089A59AA584559E4FFC0132
:100E4000208189A59AA584519E4FFC01208389A504
:100E50009AA501969AA789A789A59AA5089758F3F4
:100E600019C01CA61BA611C08BA59CA589529E4F1C
:100E7000FC0120818BA59CA584519E4FFC01208301
:100E80008BA59CA501969CA78BA78BA59CA50897D5
:100E900058F300008DA59EA5892B19F01EA61DA64E
:100EA00001C000008DA59EA5892B09F02BC0809163
:100EB0000002883031F41092000281E08093B40186
:100EC00020C08091000291E0980F90930002882F3B
:100ED00090E084519E4FFC0180818093010288E262
:100EE00090E0209101022095FC0120838BE290E0AC
:100EF0002091B401FC0120838091B401880F80937C
:100F0000B40100008DA59EA5AE960FB6F894DEBF85
:100F10000FBECDBFDF91CF910895CF93DF9300D067
:100F2000CDB7DEB79A83898389819A818130910513
:100F3000A9F082309105B9F0892B29F58091DF0164
:100F40009091E001892B29F081E090E09A838983D8
:100F50001CC082E090E09A83898317C082E090E011
:100F60009A83898312C08091DF019091E001892BDF
:100F700029F081E090E09A83898307C082E090E0C5
:100F80009A83898302C01A82198289819A81813069
:100F9000910549F08230910551F0892B09F00AC082
:100FA0001092E90107C080E28093E90103C010922A
:100FB000E901000085E290E025E230E0F9012081BE
:100FC0002F7D3091E901232B3091EB01232BFC0184
:100FD000208389819A810F900F90DF91CF9108959E
:100FE000CF93DF9300D0CDB7DEB79A838983898111
:100FF0009A81892B19F41A82198202C01A821982E5
:1010000089819A81892B09F037C08091E101909103
:10101000E20182309105C1F0833091052CF40097F4
:1010200061F0019769F020C084309105A9F0843007
:10103000910574F00597A1F017C01092EA011BC04A
:1010400081E08093EA0117C083E08093EA0113C036
:1010500087E08093EA010FC08FE08093EA010BC024
:101060008FE18093EA0107C01092EA011092E20139
:101070001092E1010000000085E290E025E230E0FE
:10108000F9012081207E3091EA01232B3091EB0180
:10109000232BFC01208389819A810F900F90DF918F
:1010A000CF910895CF93DF9300D01F92CDB7DEB7D5
:1010B0009B838A8383E290E0FC0180818095807825
:1010C00089838A819B81009719F00197A9F01FC03D
:1010D0008981882371F081E090E09B838A838091ED
:1010E000E1019091E20101969093E2018093E10188
:1010F00013C01B821A8210C08981882329F081E0E5
:1011000090E09B838A8308C01B821A8205C081E01D
:1011100090E09B838A8300008A819B81009719F06D
:10112000019731F00CC01092E6011092E50107C062
:1011300081E090E09093E6018093E50100008A81D0
:101140009B810F900F900F90DF91CF910895CF93D7
:10115000DF93CDB7DEB729970FB6F894DEBF0FBE89
:10116000CDBF9987888785E0EDEBF1E0DE0113962E
:1011700001900D928A95E1F786E090E09A83898349
:1011800088859985009719F0019779F01CC08091A6
:10119000E3019091E401892B19F01986188618C093
:1011A00081E090E09987888713C08091E301909156
:1011B000E401892B19F0198618860AC081E090E0B5
:1011C0009987888705C081E090E09987888700002B
:1011D00088859985009719F00197B1F14AC08091EF
:1011E0000202909103029C012F5F3F4F3093030254
:1011F000209302029E012D5F3F4F820F931FFC013F
:1012000080818093EB0180910202909103029C0106
:1012100089819A812817390720F0109203021092D1
:10122000020285E290E025E230E0F9012081207C95
:101230003091E901232B3091EA01232B3091EB010E
:10124000232BFC01208315C01092EB0185E290E076
:1012500025E230E0F9012081207C3091E901232B47
:101260003091EA01232B3091EB01232BFC012083E9
:1012700000008885998529960FB6F894DEBF0FBEC9
:10128000CDBFDF91CF910895CF93DF9300D0CDB73D
:10129000DEB79A83898389819A81009719F0019733
:1012A000A9F022C08091E5019091E601892B59F0C7
:1012B0008091B5019091B601892B29F081E090E0F1
:1012C0009A83898314C01A82198211C08091B50152
:1012D0009091B601892B29F081E090E09A8389836F
:1012E00006C01A82198203C01A82198200008981FD
:1012F0009A81009719F0019799F022C08091E50139
:101300009091E601892B31F48AE090E09093B60148
:101310008093B50160E070E0CB010E94640310C0CF
:1013200064EA70ED82E893E40E9464038091B50161
:101330009091B60101979093B6018093B50100009A
:1013400089819A810F900F90DF91CF910895CF936B
:10135000DF9300D000D0CDB7DEB79C838B831A8299
:1013600019828B819C81092E000CAA0BBB0B40E0DB
:1013700050E029E030E0841B950B2817390708F46A
:1013800014C180569F4FFC010C94200E8091E50102
:101390009091E601892B29F081E090E09C838B837A
:1013A00007C11C821B8204C18091E5019091E60176
:1013B000892B31F48091B7019091B801892B29F0E4
:1013C00081E090E09C838B83F3C082E090E09C837B
:1013D0008B83EEC08091E5019091E601892B29F085
:1013E00089E090E09C838B83E3C083E090E09C8362
:1013F0008B83DEC08091E5019091E601892B29F075
:1014000089E090E09C838B83D3C08091040290910B
:101410000502069770F480910402909105020196EE
:10142000909305028093040282E090E09C838B837A
:10143000BFC0109205021092040284E090E09C83E9
:101440008B83B6C08091E5019091E601892B29F04C
:1014500089E090E09C838B83ABC0809112019091D6
:101460001301409729F085E090E09C838B83A0C016
:1014700084E090E09C838B839BC08091E5019091F8
:10148000E601892B29F089E090E09C838B8390C052
:101490008091120190911301409729F085E090E02E
:1014A0009C838B8385C0809112019091130140979A
:1014B000E9F480910402909105028C509E4FFC014A
:1014C0008081282F30E089819A812817390771F4AB
:1014D0008091E1019091E20101969093E201809365
:1014E000E10186E090E09C838B8362C087E090E01E
:1014F0009C838B835DC08091E5019091E601892BEF
:1015000029F089E090E09C838B8352C08091040293
:1015100090910502059770F4809104029091050264
:101520000196909305028093040284E090E09C83EE
:101530008B833EC01092E8011092E70188E090E0B2
:101540009C838B8335C08091E5019091E601892BC6
:1015500029F089E090E09C838B832AC01092E801F7
:101560001092E70187E090E09C838B8321C08091FB
:10157000E5019091E601892B29F089E090E09C83B8
:101580008B8316C088E090E09C838B8311C0809190
:10159000E5019091E601892B29F089E090E09C8398
:1015A0008B8306C01C821B8203C01C821B8200002E
:1015B0008B819C81092E000CAA0BBB0B40E050E0F4
:1015C00029E030E0841B950B2817390708F4A6C0E2
:1015D00086559F4FFC010C94200E83E090E0909381
:1015E000B8018093B70181E190E09093130180935B
:1015F000120181E090E09093E4018093E301109266
:10160000E8011092E7011092E2011092E1011092BC
:10161000E0011092DF0185C01092050210920402D1
:101620008091B7019091B80101979093B801809390
:10163000B70182E190E09093130180931201109220
:10164000E4011092E3011092E8011092E701109278
:10165000E2011092E1011092E0011092DF0161C0FD
:101660000E9408108F709078992324F40197806F5E
:101670009F6F019690931301809312018091040251
:101680009091050220911201309113018C509E4FD0
:10169000FC01208381E090E09093E0018093DF01E2
:1016A00040C080E190E0909313018093120139C013
:1016B00081E090E09093E8018093E7011092E001CF
:1016C0001092DF0180911201909113019A83898316
:1016D00028C01092E8011092E70184E190E0909315
:1016E00013018093120181E090E09093E0018093D8
:1016F000DF0117C01092E8011092E70183E190E04A
:1017000090931301809312010CC01092E801109283
:10171000E7011092E0011092DF0103C0000001C058
:1017200000008B819C810F900F900F900F90DF91A4
:10173000CF9108950F931F93CF93DF93CDB7DEB76B
:1017400069970FB6F894DEBF0FBECDBF81E290E07F
:1017500020EFFC01208382E290E02FE0FC01208357
:1017600084E290E02FE7FC01208385E290E020E80E
:10177000FC01208387E290E02FEFFC01208388E2C8
:1017800090E0FC0110828AE290E02FEFFC012083C0
:101790008BE290E0FC01108280E1E2ECF1E0DE01FE
:1017A0001A9601900D928A95E1F788E090E098876B
:1017B0008F838FEF898789858093060284E190E08B
:1017C000A0E0B0E08093070290930802A093090282
:1017D000B0930A028091070290910802A091090239
:1017E000B0910A0280930B0290930C02A0930D0219
:1017F000B0930E028BE294E09093100280930F025C
:1018000089858093110281E090E0A0E0B0E08093B0
:10181000120290931302A0931402B09315028091C8
:10182000120290911302A0911402B09115028093BC
:10183000160290931702A0931802B093190282E047
:1018400095E090931B0280931A02898580931C0275
:101850008AEF90E0A0E0B0E080931D0290931E021A
:10186000A0931F02B093200280911D0290911E024E
:10187000A0911F02B0912002809321029093220236
:10188000A0932302B09324028DE897E09093260260
:101890008093250289858093270282E390E0A0E06F
:1018A000B0E08093280290932902A0932A02B0937B
:1018B0002B028091280290912902A0912A02B091D6
:1018C0002B0280932C0290932D02A0932E02B093B2
:1018D0002F0280EF97E09093310280933002898548
:1018E0008093320284E190E0A0E0B0E08093330284
:1018F00090933402A0933502B09336028091330264
:1019000090913402A0913502B09136028093370253
:1019100090933802A0933902B0933A0282E598E09E
:1019200090933C0280933B02898580933D0284EF33
:1019300091E0A0E0B0E080933E0290933F02A0933C
:101940004002B093410280913E0290913F02A091EB
:101950004002B09141028093420290934302A093CF
:101960004402B093450287EA98E09093470280933F
:10197000460289858093480284E690E0A0E0B0E0CA
:101980008093490290934A02A0934B02B0934C0279
:101990008091490290914A02A0914B02B0914C0271
:1019A00080934D0290934E02A0934F02B093500249
:1019B00084E499E090935202809351028985809348
:1019C000530284EF91E0A0E0B0E080935402909342
:1019D0005502A0935602B093570280915402909101
:1019E0005502A0915602B0915702809358029093ED
:1019F0005902A0935A02B0935B0287EA99E0909350
:101A00005D0280935C028A859B85FC0181819281C5
:101A1000A381B4818B839C83AD83BE8381E090E0FE
:101A20009A83898325C089819A81880F991F9E0195
:101A30002F5F3F4F820F931F0996FC018081918198
:101A4000FC0121813281438154818B819C81AD8154
:101A5000BE81BC01CD010E943902DC01CB018B8328
:101A60009C83AD83BE8389819A8101969A83898301
:101A700029813A818F81988528173907A0F28B81B7
:101A80009C81AD81BE81BC01CD010E9436030E94C4
:101A900086020E9404041A821982A0C089819A8158
:101AA000880F991F9E012F5F3F4F820F931F09964A
:101AB000FC0180819181FC0125813681478150851F
:101AC00089819A81880F991FBE016F5F7F4F860FB2
:101AD000971F0996FC0180819181FC01818192818F
:101AE000A381B481281739074A075B0708F445C06A
:101AF00089819A81880F991F9E012F5F3F4F820F26
:101B0000931F0996FC010081118189819A81880FB8
:101B1000991F9E012F5F3F4F820F931F0996FC0173
:101B200080819181FC012185328589819A81880F8C
:101B3000991FAE014F5F5F4F840F951F0996FC01FF
:101B400080819181FC018081082E000C990BF901A4
:101B50000995F801808389819A81880F991F9E01D8
:101B60002F5F3F4F820F931F0996FC018081918167
:101B7000FC01158216821782108689819A81880F4E
:101B8000991F9E012F5F3F4F820F931F0996FC0103
:101B90006081718189819A81880F991F9E012F5FD1
:101BA0003F4F820F931F0996FC0180819181FC01B8
:101BB00025813681478150858B819C81AD81BE8195
:101BC000820F931FA41FB51FFB0185839683A783F4
:101BD000B08789819A8101969A83898329813A8184
:101BE0008F8198852817390708F458CF0000809115
:101BF000D2018823E1F31092D2014DCFA1E21A2E37
:101C0000AA1BBB1BFD010DC0AA1FBB1FEE1FFF1FA0
:101C1000A217B307E407F50720F0A21BB30BE40BF0
:101C2000F50B661F771F881F991F1A9469F7609537
:101C30007095809590959B01AC01BD01CF010895F1
:101C4000EE0FFF1F0024001C0BBE0790F691E02D45
:101C500009940E94D60E08F481E008950E94420E75
:101C60000C94110F0E940A0F58F00E94030F40F0CD
:101C700029F45F3F29F00C94FA0E51110C94450F92
:101C80000C94000F0E94220F68F39923B1F355239F
:101C900091F3951B550BBB27AA276217730784077F
:101CA00038F09F5F5F4F220F331F441FAA1FA9F315
:101CB00035D00E2E3AF0E0E832D091505040E69503
:101CC000001CCAF72BD0FE2F29D0660F771F881F64
:101CD000BB1F261737074807AB07B0E809F0BB0B57
:101CE000802DBF01FF2793585F4F3AF09E3F51056B
:101CF00078F00C94FA0E0C94450F5F3FE4F3983E95
:101D0000D4F3869577956795B795F7959F5FC9F753
:101D1000880F911D9695879597F90895E1E0660FD4
:101D2000771F881FBB1F621773078407BA0720F04D
:101D3000621B730B840BBA0BEE1F88F7E0950895B6
:101D40000E94A70E6894B1110C94450F08950E944B
:101D50002A0F88F09F5798F0B92F9927B751B0F004
:101D6000E1F0660F771F881F991F1AF0BA95C9F71F
:101D700014C0B13091F00E94440FB1E008950C946A
:101D8000440F672F782F8827B85F39F0B93FCCF31D
:101D9000869577956795B395D9F73EF4909580959C
:101DA000709561957F4F8F4F9F4F0895990F000851
:101DB000550FAA0BE0E8FEEF16161706E807F9071D
:101DC000C0F012161306E407F50798F0621B730BB8
:101DD000840B950B39F40A2661F0232B242B252B39
:101DE00021F408950A2609F4A140A6958FEF811DDC
:101DF000811D089597F99F6780E870E060E008957D
:101E00009FEF80EC089500240A9416161706180612
:101E10000906089500240A941216130614060506EE
:101E20000895092E0394000C11F4882352F0BB0F7F
:101E300040F4BF2B11F460FF04C06F5F7F4F8F4FE2
:101E40009F4F089557FD9058440F551F59F05F3F1D
:101E500071F04795880F97FB991F61F09F3F79F0CC
:101E600087950895121613061406551FF2CF46954E
:101E7000F1DF08C0161617061806991FF1CF8695D0
:101E80007105610508940895E894BB2766277727B4
:101E9000CB0197F908950E94D60E08F48FEF0895AC
:101EA0000E94630F0C94110F0E94030F38F00E94E0
:101EB0000A0F20F0952311F00C94FA0E0C94000FE9
:101EC00011240C94450F0E94220F70F3959FC1F3CB
:101ED000950F50E0551F629FF001729FBB27F00DD8
:101EE000B11D639FAA27F00DB11DAA1F649F66272D
:101EF000B00DA11D661F829F2227B00DA11D621F7C
:101F0000739FB00DA11D621F839FA00D611D221F35
:101F1000749F3327A00D611D231F849F600D211D19
:101F2000822F762F6A2F11249F5750409AF0F1F09C
:101F300088234AF0EE0FFF1FBB1F661F771F881F05
:101F400091505040A9F79E3F510580F00C94FA0E35
:101F50000C94450F5F3FE4F3983ED4F38695779554
:101F60006795B795F795E7959F5FC1F7FE2B880FAB
:101F7000911D9695879597F908958F929F92AF92AC
:101F8000BF92CF92DF92EF92FF92CF93DF93EC015B
:101F9000688179818A819B8161157105810591052F
:101FA00021F464E279ED8BE597E02DE133EF41E038
:101FB00050E00E94171049015A019B01AC01A7EAA9
:101FC000B1E40E9436106B017C01ACEEB4EFA501C8
:101FD00094010E944410DC01CB018C0D9D1DAE1DAF
:101FE000BF1DB7FF03C00197A109B048888399833B
:101FF000AA83BB839F77DF91CF91FF90EF90DF9013
:10200000CF90BF90AF909F908F9008950C94BD0F8C
:1020100089EB91E00C94BD0FA0E0B0E08093B90192
:102020009093BA01A093BB01B093BC010895052E13
:1020300097FB1EF400940E942E1057FD07D00E94BB
:10204000FE0D07FC03D04EF40C942E1050954095D5
:10205000309521953F4F4F4F5F4F08959095809554
:10206000709561957F4F8F4F9F4F08950E94491043
:10207000A59F900DB49F900DA49F800D911D1124DC
:102080000895B7FF0C9436100E943610821B930BF4
:102090000895A29FB001B39FC001A39F700D811D41
:1020A0001124911DB29F700D811D1124911D089561
:0420B000F894FFCFD2
:1020B4000000000200000000D50000000000010044
:1020C400000010003C42464A5262423C081828086C
:1020D4000808083C384444047C40407C3C04040424
:1020E4003C04043C444444447E0404047C40404096
:1020F4007C04047C7C4440407C44447C3C44440454
:10210400040404047C4444447C44447C7C44447C73
:102114000404447C102844447C4444447C42427C6F
:102124004442427C3844404040404438784442422F
:102134004242447800925438FE3854922424FF24B6
:1021440024FF2424E8A8EE8025557252FFFFFFFFE8
:10215400FFFFFFFF0024242400423C000024242429
:10216400003C4200010A0003000100000021120C9F
:102174001221060211021C02270232023D02480209
:02218400530204
:00000001FF
